:100000000C9475000C9487000C9487000C94870066
:100010000C9487000C9487000C9487000C94870044
:100020000C9487000C9487000C9487000C94870034
:100030000C9487000C9487000C9487000C94870024
:100040000C9487000C9487000C9487000C94870014
:100050000C9487000C9487000C9487000C94870004
:100060000C94D2000C948700ED00080108010801EF
:100070000801080108010801ED0008010801080154
:100080000801080108010801ED0008010801080144
:100090000801080108010801ED0008010801080134
:1000A0000801080108010801F10008010801080120
:1000B0000801080108010801FC0008010801080105
:1000C0000801080108010801F10008010801080100
:1000D0000801080108010801FC00080108010801E5
:1000E0000801080108010801040111241FBECFEF17
:1000F000D8E0DEBFCDBF21E0A0E0B1E001C01D929D
:10010000A230B207E1F70E94C0000C941C010C94CD
:10011000000097B19F7C97B9880F8093BA0085E45F
:100120008093BC000895F89481E40E9489008AB10C
:1001300080628AB984B1816084B98BB18F7D8BB9BB
:1001400085B18E7F85B978940895823469F018F46A
:10015000813431F00895833459F0843469F008957E
:100160008BB180628BB908958BB18F7D8BB9089567
:1001700085B1816085B9089585B18E7F85B908956F
:100180000E949300809100018823E1F38091010196
:100190000E94A50010920001ECEBF0E080818564E4
:1001A0008083F0CF1F920F920FB60F9211248F937E
:1001B0009F93AF93BF93EF93FF938091B900E82F84
:1001C000E87F8E2F90E0FC01E056F109E134F10563
:1001D000F8F4EC5CFF4F0C94160185EC8093BC00A6
:1001E0001AC08091BB008093010181E080930001DF
:1001F00085EC8093BC000FC08091BB00809301010F
:1002000081E08093000107C085EC8093BC0003C0AF
:1002100085EC8093BC00FF91EF91BF91AF919F91CE
:100220008F910F900FBE0F901F901895EE0FFF1F2C
:0C0230000590F491E02D0994F894FFCFA4
:00000001FF
