:100000000C9475000C9487000C9487000C94870066
:100010000C9487000C9487000C9487000C94870044
:100020000C9487000C9487000C9487000C94870034
:100030000C9487000C9487000C9487000C94870024
:100040000C9487000C9487000C9487000C94870014
:100050000C9487000C9487000C9487000C94870004
:100060000C94D8000C948700F3000E010E010E01D1
:100070000E010E010E010E01F3000E010E010E0124
:100080000E010E010E010E01F3000E010E010E0114
:100090000E010E010E010E01F3000E010E010E0104
:1000A0000E010E010E010E01F7000E010E010E01F0
:1000B0000E010E010E010E0102010E010E010E01D4
:1000C0000E010E010E010E01F7000E010E010E01D0
:1000D0000E010E010E010E0102010E010E010E01B4
:1000E0000E010E010E010E010A0111241FBECFEFF9
:1000F000D8E0DEBFCDBF21E0A0E0B1E001C01D929D
:10010000A230B207E1F70E94C6000C945B010C9488
:10011000000097B19F7C97B9880F8093BA0085E45F
:100120008093BC000895F89481E40E9489008AB10C
:1001300080628AB984B1816084B98BB18F7D8BB9BB
:1001400085B18E7F85B90E941C0178940895823410
:1001500069F018F4813431F00895833459F084340F
:1001600079F008958BB180628BB908958BB18F7D42
:100170008BB9089585B1816085B90E9448010895C1
:1001800085B18E7F85B90E943B0108950E9493003E
:10019000809100018823E1F3809101010E94A70072
:1001A00010920001ECEBF0E0808185648083F0CF59
:1001B0001F920F920FB60F9211248F939F93AF93BC
:1001C000BF93EF93FF938091B900E82FE87F8E2FC4
:1001D00090E0FC01E056F109E134F105F8F4EC5C43
:1001E000FF4F0C94550185EC8093BC001AC08091A0
:1001F000BB008093010181E08093000185EC809336
:10020000BC000FC08091BB008093010181E080930E
:10021000000107C085EC8093BC0003C085EC80938F
:10022000BC00FF91EF91BF91AF919F918F910F9083
:100230000FBE0F901F90189584B1826084B982E838
:10024000809380008AE1809381008FE39CE9909302
:1002500087008093860088EB9BE0909389008093D1
:1002600088002FE986E891E0215080409040E1F736
:1002700000C00000089580ED97E09093890080937E
:10028000880087EA91E60197F1F700C00000089521
:1002900080EA9FE0909389008093880087EA91E646
:1002A0000197F1F700C000000895EE0FFF1F0590C1
:0A02B000F491E02D0994F894FFCFBB
:00000001FF
