:100000000C9434000C9449000C9449000C94490061
:100010000C9449000C9449000C9449000C9449003C
:100020000C9449000C9449000C9449000C9449002C
:100030000C9449000C9449000C9449000C9449001C
:100040000C9449000C9449000C9449000C9449000C
:100050000C9449000C9449000C9449000C944900FC
:100060000C9449000C94490011241FBECFEFD8E036
:10007000DEBFCDBF11E0A0E0B1E0E8EEF1E002C0EC
:1000800005900D92A231B107D9F70E94DF000C94C0
:10009000F2000C94000095B19F7E95B9282F2F7027
:1000A00082958F7098B1907F922B98B995B1907F7F
:1000B000892B85B985B1806285B98FE99FE0019769
:1000C000F1F700C0000085B18F7D85B98FE39FE116
:1000D0000197F1F700C00000089584B18F6084B9E2
:1000E00087B18F6087B984B1806384B92FEF89EFBE
:1000F00090E0215080409040E1F700C0000088E38C
:100100000E944B008FE99FE00197F1F700C00000CB
:100110008CE00E944B008FE99FE00197F1F700C04F
:10012000000086E00E944B008FE99FE00197F1F705
:1001300000C0000081E00E944B008FE19EE4019727
:10014000F1F700C000000895282F2F7082958F705E
:1001500095B1906195B998B1907F922B98B995B16E
:10016000907F892B85B985B1806285B98FE39FE146
:100170000197F1F700C0000085B18F7D85B98FE34D
:100180009FE10197F1F700C000000895CF93DF933E
:10019000EC0103C021960E94A40088818111FACF4E
:1001A000DF91CF910895882329F0813011F4605CAC
:1001B00001C060E0862F80680E944B0008950E9475
:1001C0006D0060E080E00E94D30080E091E00E943A
:1001D000C60060E081E00E94D3008AE091E00E94C6
:0801E000C600FFCFF894FFCF29
:1001E8004C4F4C204F204B4B4B00534955555555C0
:0201F8005500B0
:00000001FF
