S00C00004C4142322E7372656317
S11300000C9434000C9451000C9451000C94510045
S11300100C9451000C9451000C9451000C94510018
S11300200C9451000C9451000C9451000C94510008
S11300300C9451000C9451000C9451000C945100F8
S11300400C9451000C9451000C9405030C94510031
S11300500C9451000C9451000C9451000C945100D8
S11300600C9451000C94510011241FBECFEFD8E022
S1130070DEBFCDBF11E0A0E0B1E0E4EDF0E102C0ED
S113008005900D92AA32B107D9F721E0AAE2B1E0B6
S113009001C01D92A834B207E1F70E9460020C94DB
S11300A068080C940000ECE7F0E0808180648083B1
S11300B0808180628083EAE7F0E0808180688083C9
S11300C08081876080830895982F883008F097E0B6
S11300D0892F8770806680937C00EEE7F0E0408192
S11300E021E030E0B90102C0660F771F9A95E2F76C
S11300F0CB01842B8083EAE7F0E0808180648083F5
S113010080917A0086FDFCCF80917900089595B1A5
S11301109F7E95B9282F2F7082958F7098B1907F0C
S1130120922B98B995B1907F892B85B985B180625E
S113013085B98FE99FE00197F1F700C0000085B110
S11301408F7D85B98FE39FE10197F1F700C000002F
S1130150089584B18F6084B987B18F6087B984B101
S1130160806384B92FEF89EF90E021508040904064
S1130170E1F700C0000088E30E9487008FE99FE058
S11301800197F1F700C000008CE00E9487008FE91E
S11301909FE00197F1F700C0000086E00E9487000D
S11301A08FE99FE00197F1F700C0000081E00E9411
S11301B087008FE19EE40197F1F700C000000895E5
S11301C0282F2F7082958F7095B1906195B998B151
S11301D0907F922B98B995B1907F892B85B985B181
S11301E0806285B98FE39FE10197F1F700C00000B9
S11301F085B18F7D85B98FE39FE10197F1F700C049
S113020000000895CF93DF93EC0103C021960E9470
S1130210E00088818111FACFDF91CF91089588237E
S113022029F0813011F4605C01C060E0862F8068A1
S11302300E94870008951092C50097E69093C40029
S1130240A1ECB0E01C92E2ECF0E0108290819F738C
S1130250908390819F7C90839081977F90839081FD
S1130260966090839C9198619C93813029F4E1EC91
S1130270F0E080818068808308959091C00095FFAC
S1130280FCCF8093C6000895CF93DF93EC01892BB4
S113029021F406C021960E943D0188818111FACF84
S11302A0DF91CF910895F89481E00E941B010E9490
S11302B053000E94A900789408958F929F92AF9260
S11302C0BF92EF92FF920F931F93CF93DF9300D0CF
S11302D000D000D0CDB7DEB7062F142F682F70E002
S11302E080E090E00E943D0420E030E04FE753E4DA
S11302F00E949C0320E030E040EA50E40E94F404B1
S11303004B015C010E940E04F62E70E080E090E048
S11303100E943F049B01AC01C501B4010E942A0361
S113032020E030E048EC52E40E94F4040E940E0401
S11303301F926F931F92FF9280E091E09F938F939F
S11303401F9286E08F93CE0101967C019F938F9339
S11303500E947005612F70E0802F90E00E940F01D1
S1130360C7010E9402010FB6F894DEBF0FBECDBFD5
S113037026960FB6F894DEBF0FBECDBFDF91CF91A6
S11303801F910F91FF90EF90BF90AF909F908F902F
S11303900895CF92DF92EF92FF920F931F93CF9322
S11303A0DF93EB01682F70E080E090E00E943F044F
S11303B020E030E040EA50E40E94F40420E030E021
S11303C04FE753E40E949C036B017C0120E030E082
S11303D040EA50E40E94EF04181644F40F2EC12C96
S11303E0D12CF0EAEF2EF0E4FF2EF02D20E030E0E7
S11303F0A901C701B6010E94970388231CF4C12CEC
S1130400D12C760120E030E048EC52E4C701B6017B
S11304100E94F4040E940E046B017C019B0136953A
S1130420279536952795ABE7B4E10E9461058C01C9
S1130430169507959601ADECBCEC0E946105FC0194
S1130440F695E795F695E795F695E7959F010E9451
S11304506105AC0156954795569547955695479530
S1130460CA01880F991F440F551F440F551F440F8D
S1130470551F480F591FCF01841B950BAC019601E2
S1130480CF01880F991FEE0FFF1FEE0FFF1FEE0F16
S1130490FF1FE80FF91F2E1B3F0B005D08838EE240
S11304A08983405D4A8380E3820F8B831C82DF91C2
S11304B0CF911F910F91FF90EF90DF90CF9008950F
S11304C00E94530161E070E080E090E00E940F011F
S11304D088E091E00E94020160E070E081E090E039
S11304E00E940F018BE091E00E94020166E070E03F
S11304F080E090E00E940F0180E191E00E940201FF
S113050065E070E081E090E00E940F018BE091E0F3
S11305100E9402016BE070E080E090E00E940F0115
S113052083E191E00E9402016AE070E081E090E0E2
S11305300E940F018BE091E00E9402016FE070E0E5
S113054081E090E00E940F0186E191E00E940201A7
S113055086E090E00E94640080932C0187E090E0A4
S11305600E94640080932B0140E061E00E945D01E1
S113057045E061E080912C010E945D0180912A0197
S11305804AE061E00E945D0188E191E00E9444013B
S113059065E371E080912B010E94C90185E391E03C
S11305A00E9444018DE191E00E9444018FE191E0B9
S11305B00E9444016FE371E080912C010E94C90103
S11305C08FE391E00E9444018DE191E00E94440197
S11305D084E291E00E94440180912A016AE371E07F
S11305E00E94C9018AE391E00E9444018DE191E0F7
S11305F00E9444018DE191E00E94440187EA91E662
S11306000197F1F700C00000A3CF1F920F920FB61D
S11306100F9211248F938091C6008B3251F48091F4
S11306202A018F3F89F080912A018F5F80932A01EC
S11306300BC08D3249F480912A01882329F08091DE
S11306402A01815080932A018F910F900FBE0F9041
S11306501F9018955058BB27AA270E9442030C9458
S1130660B5040E94A70438F00E94AE0420F039F4C7
S11306709F3F19F426F40C94A4040EF4E095E7FBD0
S11306800C949E04E92F0E94C60458F3BA1762071B
S113069073078407950720F079F4A6F50C94E80411
S11306A00EF4E0950B2EBA2FA02D0B01B901900189
S11306B00C01CA01A0011124FF27591B99F0593FCD
S11306C050F4503E68F11A16F040A22F232F342F15
S11306D04427585FF3CF469537952795A795F04063
S11306E05395C9F77EF41F16BA0B620B730B840B78
S11306F0BAF09150A1F0FF0FBB1F661F771F881F30
S1130700C2F70EC0BA0F621F731F841F48F4879587
S113071077956795B795F7959E3F08F0B0CF939579
S1130720880F08F09927EE0F9795879508950E94F2
S11307307A0408F481E008950E94B0030C94B5048F
S11307400E94AE0458F00E94A70440F029F45F3FD1
S113075029F00C949E0451110C94E9040C94A40403
S11307600E94C60468F39923B1F3552391F3951BB2
S1130770550BBB27AA2762177307840738F09F5FBE
S11307805F4F220F331F441FAA1FA9F335D00E2E2B
S11307903AF0E0E832D091505040E695001CCAF798
S11307A02BD0FE2F29D0660F771F881FBB1F26175B
S11307B037074807AB07B0E809F0BB0B802DBF0132
S11307C0FF2793585F4F3AF09E3F510578F00C9401
S11307D09E040C94E9045F3FE4F3983ED4F38695B9
S11307E077956795B795F7959F5FC9F7880F911D22
S11307F09695879597F90895E1E0660F771F881F0E
S1130800BB1F621773078407BA0720F0621B730BC0
S1130810840BBA0BEE1F88F7E09508950E94CE046E
S113082088F09F5798F0B92F9927B751B0F0E1F0AD
S1130830660F771F881F991F1AF0BA95C9F714C05D
S1130840B13091F00E94E804B1E008950C94E804FA
S1130850672F782F8827B85F39F0B93FCCF3869596
S113086077956795B395D9F73EF4909580957095F3
S113087061957F4F8F4F9F4F0895E89409C097FB70
S11308803EF490958095709561957F4F8F4F9F4F63
S11308909923A9F0F92F96E9BB279395F6958795A7
S11308A077956795B795F111F8CFFAF4BB0F11F46A
S11308B060FF1BC06F5F7F4F8F4F9F4F16C0882311
S11308C011F096E911C0772321F09EE8872F762F47
S11308D005C0662371F096E8862F70E060E02AF088
S11308E09A95660F771F881FDAF7880F9695879574
S11308F097F90895990F0008550FAA0BE0E8FEEF49
S113090016161706E807F907C0F012161306E407CF
S1130910F50798F0621B730B840B950B39F40A26C8
S113092061F0232B242B252B21F408950A2609F4A6
S1130930A140A6958FEF811D811D089597F99F67AA
S113094080E870E060E008959FEF80EC0895002453
S11309500A941616170618060906089500240A9420
S113096012161306140605060895092E0394000CA6
S113097011F4882352F0BB0F40F4BF2B11F460FF35
S113098004C06F5F7F4F8F4F9F4F089557FD90585E
S1130990440F551F59F05F3F71F04795880F97FB3F
S11309A0991F61F09F3F79F08795089512161306F9
S11309B01406551FF2CF4695F1DF08C01616170628
S11309C01806991FF1CF869571056105089408955D
S11309D0E894BB2766277727CB0197F908950E94EF
S11309E07A0408F48FEF08950E9407050C94B50467
S11309F00E94A70438F00E94AE0420F0952311F061
S1130A000C949E040C94A40411240C94E9040E94F4
S1130A10C60470F3959FC1F3950F50E0551F629F74
S1130A20F001729FBB27F00DB11D639FAA27F00D43
S1130A30B11DAA1F649F6627B00DA11D661F829F6A
S1130A402227B00DA11D621F739FB00DA11D621F4F
S1130A50839FA00D611D221F749F3327A00D611D6C
S1130A60231F849F600D211D822F762F6A2F11244E
S1130A709F5750409AF0F1F088234AF0EE0FFF1F81
S1130A80BB1F661F771F881F91505040A9F79E3FD8
S1130A90510580F00C949E040C94E9045F3FE4F348
S1130AA0983ED4F3869577956795B795F795E7952E
S1130AB09F5FC1F7FE2B880F911D9695879597F937
S1130AC00895A29FB001B39FC001A39F700D811D23
S1130AD01124911DB29F700D811D1124911D089543
S1130AE0AEE0B0E0E6E7F5E00C943F080D891E891E
S1130AF08F89988D26E02C831A83098397FF02C07F
S1130B0080E090E801979E838D83AE01455E5F4F40
S1130B10698D7A8DCE0101960E94A0054D815E817A
S1130B2057FD0AC02F813885421753070CF49A01E8
S1130B30F801E20FF31F10822E96E4E00C945B0898
S1130B40ABE0B0E0E6EAF5E00C9431086C017B011F
S1130B508A01FC0117821682838181FFCCC1CE01F8
S1130B6001963C01F6019381F70193FD859193FF72
S1130B7081917F01882309F4BAC1853239F493FD48
S1130B80859193FF81917F01853229F4B60190E02C
S1130B900E949707E7CF912C212C312CFFE1F3150C
S1130BA0D8F08B3279F038F4803279F08332A1F4C2
S1130BB0232D20611DC08D3261F0803369F4232D13
S1130BC0216016C0832D8260382EE32DE4603E2E12
S1130BD02AC0F32DF8601DC037FC2DC020ED280F6E
S1130BE02A3040F08E32B9F436FC81C1232D2064C2
S1130BF0322E19C036FE06C08AE0989E200D1124BC
S1130C00922E11C0EAE02E9E200D1124222EF32DE7
S1130C10F0623F2E08C08C3621F4832D8068382E74
S1130C2002C0883641F4F70193FD859193FF8191C9
S1130C307F018111B3CF982F9F7D9554933028F471
S1130C400C5F1F4F9FE399830DC0833631F08337C8
S1130C5071F0833509F059C021C0F801808189837E
S1130C600E5F1F4F88248394912C530113C02801D5
S1130C70F2E04F0E511CF801A080B18036FE03C093
S1130C80692D70E002C06FEF7FEFC5010E948C07F1
S1130C904C018201F32DFF773F2E16C0280122E07C
S1130CA0420E511CF801A080B18036FE03C0692DAC
S1130CB070E002C06FEF7FEFC5010E9481074C0115
S1130CC0F32DF0683F2E820133FC1BC0822D90E08F
S1130CD088169906B0F4B60180E290E00E94970766
S1130CE02A94F4CFF50137FC859137FE81915F0199
S1130CF0B60190E00E94970721102A9421E0821AFD
S1130D0091088114910471F7E8C0843611F0893692
S1130D1041F5F80137FE07C06081718182819381BA
S1130D200C5F1F4F08C060817181072E000C880B77
S1130D30990B0E5F1F4FF32DFF763F2E97FF09C0CF
S1130D4090958095709561957F4F8F4F9F4FF06878
S1130D503F2E2AE030E0A3010E94D307882E861894
S1130D6045C0853731F4232D2F7EB22E2AE030E0A2
S1130D7025C0932D997FB92E8F36C1F018F488358C
S1130D8079F0B5C0803719F0883721F0B0C0E92F69
S1130D90E061BE2EB4FE0DC0FB2DF460BF2E09C071
S1130DA034FE0AC0292F2660B22E06C028E030E0A7
S1130DB005C020E130E002C020E132E0F801B7FED6
S1130DC007C060817181828193810C5F1F4F06C0CF
S1130DD06081718180E090E00E5F1F4FA3010E944B
S1130DE0D307882E8618FB2DFF773F2E36FE0DC0C5
S1130DF0232D2E7FA22E891458F434FE0BC032FC0E
S1130E0009C0832D8E7EA82E05C0B82CA32C03C048
S1130E10B82C01C0B92CA4FE0FC0FE01E80DF11DD1
S1130E208081803321F49A2D997EA92E09C0A2FED7
S1130E3006C0B394B39404C08A2D867809F0B394A1
S1130E40A3FC11C0A0FE06C0B21488F4280C922C96
S1130E509B180EC0B21460F4B60180E290E00E94C8
S1130E609707B394F7CFB21418F42B1802C0982C38
S1130E70212CA4FE10C0B60180E390E00E949707E5
S1130E80A2FE17C0A1FC03C088E790E002C088E579
S1130E9090E0B6010CC08A2D867859F0A1FE02C0FC
S1130EA08BE201C080E2A7FC8DE2B60190E00E94D3
S1130EB09707891438F4B60180E390E00E949707FD
S1130EC09A94F7CF8A94F301E80DF11D8081B6015D
S1130ED090E00E9497078110F5CF222009F442CEBA
S1130EE0B60180E290E00E9497072A94F6CFF601BB
S1130EF08681978102C08FEF9FEF2B96E2E10C94DD
S1130F004D08FC010590615070400110D8F78095A0
S1130F1090958E0F9F1F0895FC01615070400190C1
S1130F200110D8F7809590958E0F9F1F08950F9309
S1130F301F93CF93DF93FB01238121FD03C08FEF28
S1130F409FEF2CC022FF16C0468157812481358132
S1130F504217530744F4A081B1819D012F5F3F4F95
S1130F60318320838C93268137812F5F3F4F3783D2
S1130F70268314C08B01EC01FB010084F185E02D74
S1130F800995892BE1F6D80116968D919C911797B6
S1130F90019617969C938E931697CE01DF91CF916D
S1130FA01F910F910895FA01AA27283051F1203199
S1130FB081F1E8946F936E7F6E5F7F4F8F4F9F4FE9
S1130FC0AF4FB1E03ED0B4E03CD0670F781F891F2B
S1130FD09A1FA11D680F791F8A1F911DA11D6A0FF9
S1130FE0711D811D911DA11D20D009F468943F91AC
S1130FF02AE0269F11243019305D3193DEF6CF01AB
S11310000895462F4770405D4193B3E00FD0C9F770
S1131010F6CF462F4F70405D4A3318F0495D31FDDD
S11310204052419302D0A9F7EACFB4E0A695979530
S1131030879577956795BA95C9F700976105710506
S113104008959B01AC010A2E069457954795379550
S11310502795BA95C9F7620F731F841F951FA01DAA
S113106008952F923F924F925F926F927F928F9248
S11310709F92AF92BF92CF92DF92EF92FF920F9323
S11310801F93CF93DF93CDB7DEB7CA1BDB0B0FB62D
S1131090F894DEBF0FBECDBF09942A8839884888EA
S11310A05F846E847D848C849B84AA84B984C88480
S11310B0DF80EE80FD800C811B81AA81B981CE0F77
S11310C0D11D0FB6F894DEBF0FBECDBFED0108955C
S10710D0F894FFCFBE
S11310D425642E2530326400533100302E30300024
S11310E4533200533300560053313A20000A00535C
S10D10F4323A200053333A20000082
S9030000FC
