:100000000C943B000C9458000C9458000C9458002D
:100010000C9458000C9458000C9458000C94580000
:100020000C9458000C9458000C9458000C945800F0
:100030000C9458000C9458000C9458000C945800E0
:100040000C9458000C9435010C9458000C945800F2
:100050000C9458000C9458000C9458000C945800C0
:100060000C9458000C94580072007C00860090009C
:100070009A00A400AE0011241FBECFEFD8E0DEBF6F
:10008000CDBF11E0A0E0B1E0EEE8F2E002C00590E3
:100090000D92A632B107D9F721E0A6E2B1E001C086
:1000A0001D92A732B207E1F70E9412010C9445019C
:1000B0000C940000E82F84FF5BC084B18C6284B98B
:1000C00084B18F7E84B98CB580618CBDE7708E2F32
:1000D00090E08730910508F051C0FC01EC5CFF4FC7
:1000E0000C943F018CB58E7F8CBD8CB58D7F8CBD03
:1000F0008DB581608DBD42C08CB58E7F8CBD8CB5B9
:100100008D7F8CBD8DB58E7F8DBD38C08CB58160E7
:100110008CBD8CB58D7F8CBD8DB581608DBD2EC0A5
:100120008CB581608CBD8CB58D7F8CBD8DB58E7F7F
:100130008DBD24C08CB58E7F8CBD8CB582608CBD8E
:100140008DB581608DBD1AC08CB58E7F8CBD8CB590
:1001500082608CBD8DB58E7F8DBD10C08CB58160E9
:100160008CBD8CB582608CBD8DB58E7F8DBD06C07B
:1001700084B1806184B984B1837D84B98CB5462B08
:10018000242B282B20642CBD08958EBD08950DB41A
:1001900007FEFDCF8EB508951092C50097E69093A7
:1001A000C400A1ECB0E01C92E2ECF0E0108290817F
:1001B0009F73908390819F7C90839081977F9083A1
:1001C0009081966090839C9198619C93813029F4F2
:1001D000E1ECF0E080818068808308959091C00018
:1001E00095FFFCCF8093C6000895CF93DF93EC0179
:1001F000892B21F406C021960E94EE00888181118E
:10020000FACFDF91CF910895F89420E040E060E0CC
:1002100083E50E945A008CB580688CBD0E94CC009A
:10022000789408950E94040180E091E00E94F50016
:1002300081E40E94C50089E091E00E94F5000E94DF
:10024000C7008093260181E191E00E94F50089E1D9
:1002500091E00E94F5008091260190E00E94EE005E
:1002600087E091E00E94F500E3CF1F920F920FB656
:100270000F9211240F900FBE0F901F901895EE0F44
:0E028000FF1F0590F491E02D0994F894FFCF34
:10028E00496E6963696F200A0050525545424131EB
:10029E0000505255454241320053652072656369E4
:0602AE0062696F3A2000B6
:00000001FF
