:100000000C943B000C9458000C9458000C9458002D
:100010000C9458000C9458000C9458000C94580000
:100020000C9458000C9458000C9458000C945800F0
:100030000C9458000C9458000C9458000C945800E0
:100040000C9458000C9458000C9458000C945800D0
:100050000C9458000C9458000C9458000C945800C0
:100060000C9458000C94580072007C00860090009C
:100070009A00A400AE0011241FBECFEFD8E0DEBF6F
:10008000CDBF11E0A0E0B1E0E2E8F2E002C00590EF
:100090000D92A230B107D9F721E0A2E0B1E001C092
:1000A0001D92A330B207E1F70E9417010C943F01A3
:1000B0000C940000E82F84FF5BC084B18C6284B98B
:1000C00084B18F7E84B98CB580618CBDE7708E2F32
:1000D00090E08730910508F059C0FC01EC5CFF4FBF
:1000E0000C9439018CB58E7F8CBD8CB58D7F8CBD09
:1000F0008DB581608DBD4AC08CB58E7F8CBD8CB5B1
:100100008D7F8CBD8DB58E7F8DBD40C08CB58160DF
:100110008CBD8CB58D7F8CBD8DB581608DBD36C09D
:100120008CB581608CBD8CB58D7F8CBD8DB58E7F7F
:100130008DBD2CC08CB58E7F8CBD8CB582608CBD86
:100140008DB581608DBD22C08CB58E7F8CBD8CB588
:1001500082608CBD8DB58E7F8DBD18C08CB58160E1
:100160008CBD8CB582608CBD8DB58E7F8DBD0EC073
:1001700035B181E090E002C0880F991F3A95E2F70F
:1001800094B1892B84B984B1837D84B98CB5462B15
:10019000242B282B20642CBD08958EBD08950DB40A
:1001A00007FEFDCF8EB508951092C50097E6909397
:1001B000C400A1ECB0E01C92E2ECF0E0108290816F
:1001C0009F73908390819F7C90839081977F908391
:1001D0009081966090839C9198619C93813029F4E2
:1001E000E1ECF0E080818068808308959091C00008
:1001F00095FFFCCF8093C6000895CF93DF93EC0169
:10020000892B21F406C021960E94F6008881811175
:10021000FACFDF91CF910895F89420E040E060E0BC
:1002200083E50E945A000E94D400789408950E94A9
:100230000C0185B18B7F85B983E60E94CD000E94B9
:10024000CF008093020180E091E00E94FD00809148
:10025000020190E00E94F60085B1846085B92FEF1D
:1002600089E698E1215080409040E1F700C000000D
:10027000E0CFEE0FFF1F0590F491E02D0994F89464
:02028000FFCFAE
:020282000A0070
:00000001FF
