S01100004D61737465725F50312E73726563C7
S11300000C9434000C9451000C9451000C94510045
S11300100C9451000C9451000C9451000C94510018
S11300200C9451000C9451000C9451000C94510008
S11300300C9451000C9451000C9451000C945100F8
S11300400C9451000C9451000C9451000C945100E8
S11300500C9451000C9451000C9451000C945100D8
S11300600C9451000C94510011241FBECFEFD8E022
S1130070DEBFCDBF18E0A0E0B1E0E0EAFBE102C0E2
S113008005900D92A437B107D9F728E0A4E7B8E0AA
S113009001C01D92A838B207E1F70E94E2070C9450
S11300A0CE0D0C9400001092C50097E69093C40006
S11300B0A1ECB0E01C92E2ECF0E0108290819F731E
S11300C0908390819F7C90839081977F908390818F
S11300D0966090839C9198619C93813029F4E1EC23
S11300E0F0E080818068808308959091C00095FF3E
S11300F0FCCF8093C6000895CF93DF93EC01892B46
S113010021F406C021960E94750088818111FACFDE
S1130110DF91CF9108950F931F93CF938B019C018F
S1130120C42F87B18F7C87B988B18F7E88B944305A
S113013079F018F4413031F023C0403191F040346B
S1130140C9F01EC0E9EBF0E080818C7F80831EC083
S1130150E9EBF0E080818D7F808380818160808302
S113016015C0E9EBF0E080818E7F8083808182601E
S113017080830CC0E9EBF0E080818360808306C05B
S1130180E9EBF0E080818C7F8083C1E060E074E281
S113019084EF90E0A90198010E94680ACA01B9019C
S11301A060517109810991094C2F50E09A01220F85
S11301B0331F032E000C440B550B0E94680A209336
S11301C0B80084E08093BC00CF911F910F910895F3
S11301D094EA9093BC009091BC009923E4F7909129
S11301E0B900987F983011F09031D1F490E0880FE5
S11301F0991F862B8093BB0084E88093BC00809178
S1130200BC008823E4F78091B900887F662311F04D
S1130210803441F4611108C0883141F481E00895CB
S113022080E0089580E0089581E0089580E00895D5
S11302308093BB0084E88093BC008091BC00882339
S1130240E4F78091B900887F883211F080E0089546
S113025081E00895882321F084EC8093BC0003C0DE
S113026084E88093BC008091BC008823E4F78091EB
S1130270BB00089584E98093BC008091BC0084FD98
S1130280FCCF0895CF93DF93C62FD42F60E00E9454
S1130290E800882369F08C2F0E941801882341F01C
S11302A08D2F0E941801882319F00E943A0181E0E1
S11302B0DF91CF9108950F931F93CF93DF93C82FAE
S11302C0D62F8A0160E00E94E800882399F08D2FE0
S11302D00E941801882371F061E08C2F0E94E800CD
S11302E0882341F080E00E942A01F80180830E9463
S11302F03A0181E0DF91CF911F910F910895FF9210
S11303000F931F93CF93DF932223A1F1C22F8A016E
S1130310F62ED82F60E00E94E800882361F18F2D2B
S11303200E941801882339F161E08D2F0E94E800B2
S1130330882309F1D0E018C02D2F30E08C2F90E0F5
S113034001972817390741F480E00E942A01F80137
S1130350ED0FF11D808307C081E00E942A01F8019E
S1130360ED0FF11D8083DF5FDC1730F30E943A014B
S113037081E001C081E0DF91CF911F910F91FF9047
S113038008950F931F93CF93DF93CDB7DEB7E39711
S11303900FB6F894DEBF0FBECDBFAE014F5F5F4F07
S11303A06AE889E30E945B01182F811105C080E08F
S11303B091E00E947C003EC089818035E1F0803369
S11303C0D1F08823C1F01F928F938BE191E09F932A
S11303D08F938E010E5F1F4F1F930F930E94D40AB9
S11303E0C8010E947C000F900F900F900F900F9007
S11303F00F9010E01FC042E061E889E30E944201CF
S1130400182F811105C088E391E00E947C0012C07E
S113041043E060E889E30E944201182F811105C07E
S11304208CE591E00E947C0005C08FE791E00E947A
S11304307C0011E0812FE3960FB6F894DEBF0FBE67
S1130440CDBFDF91CF911F910F910895DF92EF926D
S1130450FF920F931F93CF93DF9300D000D0CDB7BB
S1130460DEB77C018B0124E0AE014F5F5F4F6CE887
S113047089E30E947F01D82E811105C084EA91E0AE
S11304800E947C0014C08A8190E0982F88272981DB
S1130490822BF701918380838C8190E0982F8827A9
S11304A02B81822BF80191838083DD24D3948D2DBD
S11304B00F900F900F900F90DF91CF911F910F919C
S11304C0FF90EF90DF900895CF93DF9300D000D09A
S11304D0CDB7DEB7BE016D5F7F4FCE0101960E949E
S11304E02602882301F00F900F900F900F90DF9158
S11304F0CF910895EF92FF920F931F93CF93DF93C1
S1130500CDB7DEB764970FB6F894DEBF0FBECDBF8C
S1130510162F072FF82EE92E20E030E0A9010E94C3
S11305209C0888232CF482EC91E00E947C0017C084
S1130530EF92FF920F931F938EEC91E09F938F9312
S11305408E010F5F1F4F1F930F930E94D40AC8019F
S11305500E947C000FB6F894DEBF0FBECDBF649638
S11305600FB6F894DEBF0FBECDBFDF91CF911F91C0
S11305700F91FF90EF900895CF92DF92EF92FF9248
S11305800F931F93CF93DF93CDB7DEB7CD56D10929
S11305900FB6F894DEBF0FBECDBFAE0145595F4F15
S11305A060E889E30E945B01882359F1AC968FAD22
S11305B0AC971F928F9383E292E09F938F938E0167
S11305C0095F1F4F1F930F930E94D40AC8010E9412
S11305D07C00AC968FADAC9783700F900F900F900A
S11305E00F900F900F9029F087E392E00E947C0017
S11305F004C083E492E00E947C008EEC97E00E94A9
S11306007C00AE0144595F4F61E889E30E945B01BD
S1130610882309F448C0AD968FADAD971F928F9390
S113062080E592E09F938F938E01095F1F4F1F9384
S11306300F930E94D40AC8010E947C00AD968FAD2E
S1130640AD970F900F900F900F900F900F9084FF25
S113065005C083E692E00E947C0004C08DE692E02F
S11306600E947C00AD968FADAD978370813049F0C8
S113067018F0823059F00FC086E792E00E947C00A7
S11306800EC081E892E00E947C0009C08DE892E0EF
S11306900E947C0004C089E992E00E947C008EECF8
S11306A097E00E947C00AE0143595F4F6AE889E3FA
S11306B00E945B018823A1F1AE968FADAE971F9285
S11306C08F9387EA92E09F938F938E01095F1F4F68
S11306D01F930F930E94D40AC8010E947C00AE9617
S11306E08FADAE970F900F900F900F900F900F90CB
S11306F0803521F0803311F0811105C086EB92E042
S11307000E947C000DC08CE2E9ECF2E0DE01179659
S113071001900D928A95E1F7CE0107960E947C0024
S113072024E0AE014F5F5F4F6CE889E30E947F01D4
S11307308823D9F18A8190E0982F88272981822BF8
S11307408C012C8130E0322F22274B81242B69012C
S11307503F932F939F938F9385EF92E09F938F9373
S11307607E0187E0E80EF11CFF92EF920E94D40A0A
S1130770C7010E947C000FB6F894DEBF0FBECDBF48
S11307800115110541F4C114D10429F483E193E066
S11307900E947C000AC00F3F1F4F19F0CD20C09467
S11307A021F483E493E00E947C008DE693E00E94B0
S11307B07C00C359DF4F0FB6F894DEBF0FBECDBF28
S11307C0DF91CF911F910F91FF90EF90DF90CF9029
S11307D008950F931F93CF93DF93CDB7DEB72A9776
S11307E00FB6F894DEBF0FBECDBF8FE793E00E9433
S11307F07C0060E088E30E94E800182F811105C0A6
S113080088E993E00E947C004EC08AEB8093BB0091
S113081084E88093BC0080E090E005C025E32A953D
S1130820F1F7000001962091BC00222324F0843FBC
S113083021E0920798F3843F914040F083EB93E0EA
S11308400E947C000E943A0110E02DC08091B90002
S1130850887F883209F187EC93E00E947C008091C4
S1130860B900887F1F928F9382E391E09F938F93C7
S11308708E010F5F1F4F1F930F930E94D40AC8016C
S11308800E947C000E943A010F900F900F900F90ED
S11308900F900F9010E007C00E943A018DEE93E094
S11308A00E947C0011E0812F2A960FB6F894DEBFD7
S11308B00FBECDBFDF91CF911F910F910895EF929D
S11308C0FF921F93CF93DF93CDB7DEB72A970FB66E
S11308D0F894DEBF0FBECDBF81E094E00E947C009F
S11308E011E023C060E0812F0E94E8008823E1F03A
S11308F081E294E00E947C001F921F9382E391E0C6
S11309009F938F93CE0101967C019F938F930E94B6
S1130910D40AC7010E947C000E943A010F900F90F4
S11309200F900F900F900F901F5F1F37D8F28FE337
S113093094E00E947C002A960FB6F894DEBF0FBEA6
S1130940CDBFDF91CF911F91FF90EF900895CF938A
S1130950DF93EC0161E088E30E94E800882339F02A
S113096080E00E942A0188830E943A0181E0DF919D
S1130970CF9108950E94A704811181E00895AF9258
S1130980BF92CF92DF92FF920F931F93CF93DF9387
S1130990CDB7DEB72A970FB6F894DEBF0FBECDBF32
S11309A06C015B018CEA8F8383E38887198660E09E
S11309B088E30E94E800F82E882309F48DC010E033
S11309C010C0E7E0F0E0EC0FFD1FE10FF11D8081A6
S11309D00E941801F82E811103C00E943A017CC0C4
S11309E01F5F133070F30E943A0100E010E08FE3C0
S11309F09CE90197F1F700C000000F5F1F4F053617
S1130A00110508F068C0CE010A960E94BA04F82EB7
S1130A10882309F461C08A8588234CF326E0AE015B
S1130A204F5F5F4F60E088E30E947F01F82E8823C8
S1130A3009F452C08A8190E0A0E0B0E0AC01BD01AD
S1130A40032E3CE0440F551F661F771F3A95D1F7DC
S1130A50302D9B81892F90E0A0E0B0E0880F991F92
S1130A60AA1FBB1F880F991FAA1FBB1F880F991F9E
S1130A70AA1FBB1F880F991FAA1FBB1F842B952B6E
S1130A80A62BB72B4C81242F22952F70822BF50196
S1130A9080839183A283B383842F8F7090E0A0E03E
S1130AA0B0E0BC01552744279D81892F90E0A0E048
S1130AB0B0E0BA2FA92F982F8827842B952BA62B2B
S1130AC0B72B2E81822BF60180839183A283B3837B
S1130AD0FF24F39401C0F12C8F2D2A960FB6F894BD
S1130AE0DEBF0FBECDBFDF91CF911F910F91FF905D
S1130AF0DF90CF90BF90AF900895EF92FF920F9345
S1130B001F93CF93DF93CDB7DEB728970FB6F89432
S1130B10DEBF0FBECDBF8C017B01BE016B5F7F4F7B
S1130B20CE0101960E94BF04882309F44CC02D8194
S1130B303E814F815885A0E1B7E20E948A0A052EC2
S1130B4054E196958795779567955A95D1F7502DE9
S1130B500E94490920E030E048EC52E40E94A108D8
S1130B60F701608371838283938360937808709321
S1130B70790880937A0890937B0869817A818B81C4
S1130B809C810E94490920E030E040E855E30E943E
S1130B90FB0920E030E048E453E40E94FB0920E034
S1130BA030E048E452E40E942F08F8016083718326
S1130BB08283938360937C0870937D0880937E087E
S1130BC090937F0881E028960FB6F894DEBF0FBE9D
S1130BD0CDBFDF91CF911F910F91FF90EF900895BA
S1130BE0EF92FF920F931F93CF93DF93CDB7DEB7AE
S1130BF063970FB6F894DEBF0FBECDBF83E594E0D4
S1130C000E947C00CE0101960E94BA04182F811123
S1130C1005C088E794E00E947C00FDC08CE994E064
S1130C200E947C0089811F928F9382E391E09F93BD
S1130C308F938E010E5F1F4F1F930F930E94D40A50
S1130C40C8010E947C0089810F900F900F900F9033
S1130C500F900F9083FF06C085EB94E00E947C0008
S1130C6011E0D9C08AEE94E00E947C000E94E9035E
S1130C70182F811105C08EE195E00E947C00CBC045
S1130C802FEF81EE94E0215080409040E1F700C0C6
S1130C900000CE0101960E94BA04182F811105C0EC
S1130CA084E395E00E947C00B6C08BE595E00E9449
S1130CB07C0089811F928F9382E391E09F938F93AD
S1130CC08E010E5F1F4F1F930F930E94D40AC80119
S1130CD00E947C0089810F900F900F900F900F90CD
S1130CE00F90082F087083FF06C087E795E00E94E5
S1130CF07C0011E090C080EA95E00E947C0048E00E
S1130D0061EE88E30E944201182F811105C088ED2D
S1130D1095E00E947C007FC08FE39CE90197F1F786
S1130D2000C0000040E061EE88E30E944201182FF9
S1130D30811105C08FEF95E00E947C006CC085E2B4
S1130D4096E00E947C009FEF25EA8EE091502040BF
S1130D508040E1F700C00000E12CF12C8FE39CE916
S1130D600197F1F700C000009FEFE91AF90A25E6A0
S1130D70E216F10430F089E596E00E947C00102F21
S1130D804AC0CE0101960E94BA04182F811105C0F1
S1130D9087E796E00E947C003EC089818823F4F2B4
S1130DA083E996E00E947C0089811F928F9382E3FD
S1130DB091E09F938F938E010E5F1F4F1F930F93AC
S1130DC00E94D40AC8010E947C0089810F900F9070
S1130DD00F900F900F900F9083FD18C08AEA96E051
S1130DE00E947C008CEC96E00E947C00BE01645F53
S1130DF07F4FCE0140960E947D05182F882359F01D
S1130E0081EF96E00E947C0011E005C083E297E048
S1130E100E947C0011E0812F63960FB6F894DEBF28
S1130E200FBECDBFDF91CF911F910F91FF90EF9037
S1130E300895F89481E00E9453008FE397E00E94A4
S1130E407C0041E060EA76E881E090E00E948B005B
S1130E5080E797E00E947C000E945F040E94F005F6
S1130E60813029F480E997E00E947C0004C08AEB79
S1130E7097E00E947C000E94C101813029F480ED3A
S1130E8097E00E947C0004C08CEF97E00E947C00F5
S1130E90789408958F929F92AF92BF92CF92DF92EF
S1130EA0EF92FF920F931F93CF93DF93CDB7DEB7EB
S1130EB064970FB6F894DEBF0FBECDBF82E498E00E
S1130EC00E947C008090780890907908A0907A081D
S1130ED0B0907B08C501B4010E9413096B017C0129
S1130EE08B01072E000C880B990B0E944B099B0168
S1130EF0AC01C501B4010E942F0820E030E040E2BB
S1130F0051E40E94FB0920E030E040E05FE30E94EE
S1130F1030080E9413094B015C010A30110524F4C6
S1130F2086E198E00E947C004AE050E0BE016F5FD9
S1130F307F4FC6010E94A40ACE0101960E947C0044
S1130F4084E198E00E947C004AE050E0BE016F5FBB
S1130F507F4FC4010E94A40ACE0101960E947C0026
S1130F6084E498E00E947C0064960FB6F894DEBF97
S1130F700FBECDBFDF91CF911F910F91FF90EF90E6
S1130F80DF90CF90BF90AF909F908F90089560E8CE
S1130F9078E084E898E00E947D05882391F0209110
S1130FA080083091810840918208509183086091B3
S1130FB084087091850880918608909187080E9422
S1130FC04A070895CF93DF93CDB7DEB7A2970FB644
S1130FD0F894DEBF0FBECDBF0E9419070E94C70759
S1130FE087E498E00E947C000E94BC02CE014F96E8
S1130FF00E946402882349F18AA18F9389A18F9367
S113100088A18F938F8D8F938EE598E09F938F9314
S11310108E010F5F1F4F1F930F930E94D40AC801C4
S11310200E947C00209174083091750840917608E4
S1131030509177086F8D78A189A19AA10E947A02B4
S11310400FB6F894DEBF0FBECDBF9FEF27EA81E64F
S1131050915020408040E1F700C00000BFCF5058BD
S1131060BB27AA270E9447080C94C1090E94B30910
S113107038F00E94BA0920F039F49F3F19F426F49D
S11310800C94B0090EF4E095E7FB0C94AA09E92F3F
S11310900E94D20958F3BA176207730784079507A9
S11310A020F079F4A6F50C94F4090EF4E0950B2ED7
S11310B0BA2FA02D0B01B90190010C01CA01A001A6
S11310C01124FF27591B99F0593F50F4503E68F101
S11310D01A16F040A22F232F342F4427585FF3CF42
S11310E0469537952795A795F0405395C9F77EF413
S11310F01F16BA0B620B730B840BBAF09150A1F05C
S1131100FF0FBB1F661F771F881FC2F70EC0BA0FE1
S1131110621F731F841F48F4879577956795B79569
S1131120F7959E3F08F0B0CF9395880F08F0992764
S1131130EE0F9795879508950E94860908F481E03B
S113114008950E94B5080C94C1090E94BA0958F088
S11311500E94B30940F029F45F3F29F00C94AA09D6
S113116051110C94F5090C94B0090E94D20968F34A
S11311709923B1F3552391F3951B550BBB27AA274C
S113118062177307840738F09F5F5F4F220F331F86
S1131190441FAA1FA9F335D00E2E3AF0E0E832D04E
S11311A091505040E695001CCAF72BD0FE2F29D051
S11311B0660F771F881FBB1F261737074807AB0723
S11311C0B0E809F0BB0B802DBF01FF2793585F4F98
S11311D03AF09E3F510578F00C94AA090C94F50955
S11311E05F3FE4F3983ED4F3869577956795B7957A
S11311F0F7959F5FC9F7880F911D9695879597F985
S11312000895E1E0660F771F881FBB1F62177307FD
S11312108407BA0720F0621B730B840BBA0BEE1F12
S113122088F7E09508950E941A096894B1110C9406
S1131230F50908950E94DA0988F09F5798F0B92FAC
S11312409927B751B0F0E1F0660F771F881F991FF7
S11312501AF0BA95C9F714C0B13091F00E94F4099C
S1131260B1E008950C94F409672F782F8827B85FAC
S113127039F0B93FCCF3869577956795B395D9F74F
S11312803EF490958095709561957F4F8F4F9F4F59
S11312900895E89409C097FB3EF490958095709565
S11312A061957F4F8F4F9F4F9923A9F0F92F96E9AE
S11312B0BB279395F695879577956795B795F11123
S11312C0F8CFFAF4BB0F11F460FF1BC06F5F7F4FC0
S11312D08F4F9F4F16C0882311F096E911C07723D2
S11312E021F09EE8872F762F05C0662371F096E8DB
S11312F0862F70E060E02AF09A95660F771F881FAA
S1131300DAF7880F9695879597F90895990F00084D
S1131310550FAA0BE0E8FEEF16161706E807F907C3
S1131320C0F012161306E407F50798F0621B730B5E
S1131330840B950B39F40A2661F0232B242B252BDF
S113134021F408950A2609F4A140A6958FEF811D82
S1131350811D089597F99F6780E870E060E0089523
S11313609FEF80EC089500240A94161617061806B9
S11313700906089500240A94121613061406050695
S11313800895092E0394000C11F4882352F0BB0F26
S113139040F4BF2B11F460FF04C06F5F7F4F8F4F89
S11313A09F4F089557FD9058440F551F59F05F3FC4
S11313B071F04795880F97FB991F61F09F3F79F073
S11313C087950895121613061406551FF2CF4695F5
S11313D0F1DF08C0161617061806991FF1CF869577
S11313E07105610508940895E894BB27662777275B
S11313F0CB0197F908950E940E0A0C94C1090E942A
S1131400B30938F00E94BA0920F0952311F00C9426
S1131410AA090C94B00911240C94F5090E94D2096C
S113142070F3959FC1F3950F50E0551F629FF00133
S1131430729FBB27F00DB11D639FAA27F00DB11D4C
S1131440AA1F649F6627B00DA11D661F829F2227D5
S1131450B00DA11D621F739FB00DA11D621F839F5C
S1131460A00D611D221F749F3327A00D611D231F32
S1131470849F600D211D822F762F6A2F11249F5780
S113148050409AF0F1F088234AF0EE0FFF1FBB1F83
S1131490661F771F881F91505040A9F79E3F510542
S11314A080F00C94AA090C94F5095F3FE4F3983E8C
S11314B0D4F3869577956795B795F795E7959F5FEC
S11314C0C1F7FE2B880F911D9695879597F908957E
S11314D0A1E21A2EAA1BBB1BFD010DC0AA1FBB1F34
S11314E0EE1FFF1FA217B307E407F50720F0A21BA6
S11314F0B30BE40BF50B661F771F881F991F1A9413
S113150069F760957095809590959B01AC01BD013C
S1131510CF0108950E94950AA59F900DB49F900D48
S1131520A49F800D911D11240895A29FB001B39F23
S1131530C001A39F700D811D1124911DB29F700DD8
S1131540811D1124911D08954532510520F4423026
S113155010F00C94AF0AFB011082CB010895BB2755
S11315604A3031F4992322F4BDE2909581959F4F3E
S11315700C94BB0ABB27FB015527AA27880F991F88
S1131580AA1FA41710F0A41B83955051B9F7A05DAE
S1131590AA3308F0A95DA193009779F7B111B1932B
S11315A01192CB010C94ED0CAEE0B0E0EAEDFAE060
S11315B00C94A50D0D891E8986E08C831A830983FA
S11315C08FEF9FE79E838D83AE01475E5F4F6F89E8
S11315D0788DCE0101960E94F60AEF81F885E00F1E
S11315E0F11F10822E96E4E00C94C10DABE0B0E044
S11315F0ECEFFAE00C94970D6C017B018A01FC017D
S113160017821682838181FFCCC1CE0101963C01F1
S1131610F6019381F70193FD859193FF81917F01F9
S1131620882309F4BAC1853239F493FD859193FF77
S113163081917F01853229F4B60190E00E94FD0C6E
S1131640E7CF912C212C312CFFE1F315D8F08B320C
S113165079F038F4803279F08332A1F4232D2061BB
S11316601DC08D3261F0803369F4232D216016C0D2
S1131670832D8260382EE32DE4603E2E2AC0F32DA4
S1131680F8601DC037FC2DC020ED280F2A3040F033
S11316908E32B9F436FC81C1232D2064322E19C058
S11316A036FE06C08AE0989E200D1124922E11C0A9
S11316B0EAE02E9E200D1124222EF32DF0623F2EFF
S11316C008C08C3621F4832D8068382E02C08836F9
S11316D041F4F70193FD859193FF81917F0181117D
S11316E0B3CF982F9F7D9554933028F40C5F1F4FF0
S11316F09FE399830DC0833631F0833771F08335CE
S113170009F059C021C0F801808189830E5F1F4F01
S113171088248394912C530113C02801F2E04F0EC6
S1131720511CF801A080B18036FE03C0692D70E021
S113173002C06FEF7FEFC5010E94E20C4C018201F1
S1131740F32DFF773F2E16C0280122E0420E511CD4
S1131750F801A080B18036FE03C0692D70E002C09C
S11317606FEF7FEFC5010E94D70C4C01F32DF06899
S11317703F2E820133FC1BC0822D90E0881699060F
S1131780B0F4B60180E290E00E94FD0C2A94F4CFFC
S1131790F50137FC859137FE81915F01B60190E038
S11317A00E94FD0C21102A9421E0821A91088114D0
S11317B0910471F7E8C0843611F0893641F5F801D7
S11317C037FE07C060817181828193810C5F1F4F56
S11317D008C060817181072E000C880B990B0E5F85
S11317E01F4FF32DFF763F2E97FF09C090958095EC
S11317F0709561957F4F8F4F9F4FF0683F2E2AE081
S113180030E0A3010E94390D882E861845C0853723
S113181031F4232D2F7EB22E2AE030E025C0932D03
S1131820997FB92E8F36C1F018F4883579F0B5C098
S1131830803719F0883721F0B0C0E92FE061BE2E5F
S1131840B4FE0DC0FB2DF460BF2E09C034FE0AC0E7
S1131850292F2660B22E06C028E030E005C020E122
S113186030E002C020E132E0F801B7FE07C0608139
S11318707181828193810C5F1F4F06C060817181E9
S113188080E090E00E5F1F4FA3010E94390D882E67
S11318908618FB2DFF773F2E36FE0DC0232D2E7F9D
S11318A0A22E891458F434FE0BC032FC09C0832DD7
S11318B08E7EA82E05C0B82CA32C03C0B82C01C062
S11318C0B92CA4FE0FC0FE01E80DF11D8081803308
S11318D021F49A2D997EA92E09C0A2FE06C0B394C4
S11318E0B39404C08A2D867809F0B394A3FC11C084
S11318F0A0FE06C0B21488F4280C922C9B180EC0CB
S1131900B21460F4B60180E290E00E94FD0CB3943E
S1131910F7CFB21418F42B1802C0982C212CA4FE73
S113192010C0B60180E390E00E94FD0CA2FE17C037
S1131930A1FC03C088E790E002C088E590E0B6010E
S11319400CC08A2D867859F0A1FE02C08BE201C03A
S113195080E2A7FC8DE2B60190E00E94FD0C8914A0
S113196038F4B60180E390E00E94FD0C9A94F7CF1E
S11319708A94F301E80DF11D8081B60190E00E9484
S1131980FD0C8110F5CF222009F442CEB60180E28D
S113199090E00E94FD0C2A94F6CFF601868197818F
S11319A002C08FEF9FEF2B96E2E10C94B30DFC0184
S11319B00590615070400110D8F7809590958E0F76
S11319C09F1F0895FC016150704001900110D8F7E9
S11319D0809590958E0F9F1F0895DC01FC01672F61
S11319E071917723E1F7329704C07C916D937083F2
S11319F06291AE17BF07C8F308950F931F93CF9357
S1131A00DF93FB01238121FD03C08FEF9FEF2CC0E7
S1131A1022FF16C04681578124813581421753071E
S1131A2044F4A081B1819D012F5F3F4F3183208316
S1131A308C93268137812F5F3F4F3783268314C0D1
S1131A408B01EC01FB010084F185E02D0995892BC4
S1131A50E1F6D80116968D919C91179701961796E9
S1131A609C938E931697CE01DF91CF911F910F9186
S1131A700895FA01AA27283051F1203181F1E89420
S1131A806F936E7F6E5F7F4F8F4F9F4FAF4FB1E06D
S1131A903ED0B4E03CD0670F781F891F9A1FA11D68
S1131AA0680F791F8A1F911DA11D6A0F711D811D69
S1131AB0911DA11D20D009F468943F912AE0269F2E
S1131AC011243019305D3193DEF6CF010895462F8D
S1131AD04770405D4193B3E00FD0C9F7F6CF462F6E
S1131AE04F70405D4A3318F0495D31FD40524193D7
S1131AF002D0A9F7EACFB4E0A69597958795779594
S1131B006795BA95C9F700976105710508959B011A
S1131B10AC010A2E06945795479537952795BA95A3
S1131B20C9F7620F731F841F951FA01D08952F927C
S1131B303F924F925F926F927F928F929F92AF9259
S1131B40BF92CF92DF92EF92FF920F931F93CF93A6
S1131B50DF93CDB7DEB7CA1BDB0B0FB6F894DEBF3D
S1131B600FBECDBF09942A88398848885F846E8463
S1131B707D848C849B84AA84B984C884DF80EE80AD
S1131B80FD800C811B81AA81B981CE0FD11D0FB6B6
S1131B90F894DEBF0FBECDBFED010895F894FFCFDA
S1131BA054534C323536313A204572726F72206C80
S1131BB06579656E646F2049440A0054534C32358C
S1131BC036313A20494420696E76616C69646F202D
S1131BD03078253032580A0054534C323536313A75
S1131BE0204572726F7220636F6E666967757261E9
S1131BF06E646F2074696D696E670A0054534C32C9
S1131C003536313A204572726F7220656E63656EA7
S1131C106469656E646F2073656E736F720A005435
S1131C20534C323536313A20496E696369616C69C7
S1131C307A61646F20636F7272656374616D656E3F
S1131C4074650A0054534C323536313A2045727269
S1131C506F72206C6579656E646F206461746F7354
S1131C600A004C3030303030302E304C0A004C25D5
S1131C7030362E31664C0A0044454255473A2043DB
S1131C80303D25752C2043313D25752C205261743F
S1131C90696F3D554E44454620286368303D3029E0
S1131CA00A0044454255473A2043303D25752C20CF
S1131CB043313D25752C20526174696F3D252E33C7
S1131CC0660A00434F4E54524F4C205245473A2027
S1131CD0307825303258002028504F574552204F35
S1131CE04E29002028504F574552204F4646290080
S1131CF054494D494E47205245473A2030782530C3
S1131D00325800204741494E3D3136580020474162
S1131D10494E3D3158002054494D453D31336D7392
S1131D20002054494D453D3130316D7300205449F4
S1131D304D453D3430326D73002054494D453D6965
S1131D406E76616C6964004944205245473A2030FC
S1131D50782530325800202854534C3235363120FF
S1131D6056414C49444F290A002028494420494EF1
S1131D7056414C49444F2C20657370657261626111
S1131D8020307835302C2030783330206F20307874
S1131D903030290A004441544F5320435255444F94
S1131DA0533A204348303D25752C204348313D2586
S1131DB0750A004552524F523A20416D626F7320AA
S1131DC063616E616C657320656E2030202D205632
S1131DD0657269666963617220636F6E657869F321
S1131DE06E0A004552524F523A2053656E736F7219
S1131DF020736174757261646F206F2076616C6FFB
S1131E00726573206DE178696D6F730A002D2D2D55
S1131E102D2D2D2D2D2D2D2D2D2D2D2D2D0A005318
S1131E204F465452455345543A20496E696369619B
S1131E306E646F2E2E2E0A00534F4654524553455E
S1131E40543A204552524F52204445205354415253
S1131E50540A00534F465452455345543A2054496A
S1131E604D454F55540A00534F465452455345541B
S1131E703A2053454E534F52204E4F2041434B205E
S1131E802D2045737461646F3A20307800534F46B7
S1131E905452455345543A20455849544F534F0AD8
S1131EA000457363616E65616E646F20646973706D
S1131EB06F73697469766F73204932432E2E2E0A2C
S1131EC000446973706F73697469766F20656E631B
S1131ED06F6E747261646F20656E3A2030780045CD
S1131EE07363616E656F20636F6D706C657461649C
S1131EF06F0A00494E49543A20566572696669630F
S1131F00616E646F2065737461646F20696E6963C8
S1131F1069616C2E2E2E0A00494E49543A204552CE
S1131F20524F52204C4559454E444F20455354413D
S1131F30444F20494E494349414C0A00494E4954B3
S1131F403A2045737461646F20696E696369616CDA
S1131F503A20307800494E49543A2053454E534F65
S1131F60522059412043414C49425241444F202D73
S1131F702053616C74616E646F20696E696369617A
S1131F806C697A616369F36E0A00494E49543A20D8
S1131F9053656E736F72206E6F2063616C69627239
S1131FA061646F2C20696E696369616E646F20736C
S1131FB06F66742072657365742E2E2E0A00494E66
S1131FC049543A204552524F5220444520524553D9
S1131FD045540A00494E49543A204552524F522022
S1131FE04C4559454E444F2045535441444F20508D
S1131FF04F53542D52455345540A00494E49543ABF
S11320002045737461646F20706F73742D726573EF
S113201065743A20307800494E49543A2053454E6D
S1132020534F522043414C49425241444F2044456E
S1132030535055C9532044452052455345540A0032
S1132040494E49543A20496E74656E74616E646FEA
S113205020636F6D616E646F2064652063616C69D9
S11320606272616369F36E20616C7465726E61748F
S113207069766F2E2E2E0A00494E49543A20455255
S1132080524F522045534352494249454E444F20F2
S1132090524547495354524F20307845310A00493C
S11320A04E49543A204552524F52204553435249C7
S11320B04249454E444F20534547554E444F2042D4
S11320C05954450A00494E49543A20436F6D616E94
S11320D0646F2064652063616C696272616369F393
S11320E06E20656E766961646F2C2065737065720D
S11320F0616E646F2E2E2E0A00494E49543A2054C4
S1132100494D454F555420454E2043414C49425278
S1132110414349D34E0A00494E49543A204552524C
S11321204F52204C4559454E444F20455354414449
S11321304F0A00494E49543A2045737461646F2034
S113214066696E616C3A20307800494E49543A20F1
S113215053454E534F52204E4F2053452050554423
S11321604F2043414C49425241520A00494E49547E
S11321703A20496E74656E74616E646F206C656399
S11321807475726120646972656374612E2E2E0AFF
S113219000494E49543A204C454354555241204439
S11321A049524543544120455849544F5341202DE9
S11321B02053656E736F722066756E63696F6E610E
S11321C0210A00494E49543A2043414C4942524164
S11321D04349D34E20455849544F5341210A0043A3
S11321E06F6D756E69636163696F6E207365726983
S11321F0616C20696E696369616C697A61646120EC
S1132200636F7272656374616D656E7465200A0034
S1132210436F6D756E69636163696F6E2049324304
S113222020696E696369616C697A616461200A007E
S113223053656E736F7220414854313020696E6962
S11322406369616C697A61646F20636F727265633C
S113225074616D656E7465200A0053656E736F72E8
S11322602041485431303A204552524F52200A00FE
S113227053656E736F722054534C32353631206976
S11322806E696369616C697A61646F20636F7272ED
S1132290656374616D656E7465200A0053656E73C1
S11322A06F722054534C323536313A204552524FD6
S11322B052200A002E00300025002C2054656D7039
S11322C03A2000430A004572726F72206C6579658A
S11322D06E646F206461746F7320637275646F73CE
S11322E00A004800480A003D3D3D20444542554708
S11322F02054534C32353631203D3D3D0A004C5577
S1132300582043414C43554C41444F3A20252E31EB
S1072310660A000055
S9030000FC
