S01100004D61737465725F50312E73726563C7
S11300000C9434000C9451000C9451000C94510045
S11300100C9451000C9451000C9451000C94510018
S11300200C9451000C9451000C9451000C94510008
S11300300C9451000C9451000C9451000C945100F8
S11300400C9451000C9451000C9451000C945100E8
S11300500C9451000C9451000C9451000C945100D8
S11300600C9451000C94510011241FBECFEFD8E022
S1130070DEBFCDBF15E0A0E0B1E0EEE1F6E102C0E5
S113008005900D92AA38B107D9F725E0AAE8B5E0A2
S113009001C01D92AA39B207E1F70E9489050C94A8
S11300A00D0B0C9400001092C50097E69093C400C9
S11300B0A1ECB0E01C92E2ECF0E0108290819F731E
S11300C0908390819F7C90839081977F908390818F
S11300D0966090839C9198619C93813029F4E1EC23
S11300E0F0E080818068808308959091C00095FF3E
S11300F0FCCF8093C6000895CF93DF93EC01892B46
S113010021F406C021960E94750088818111FACFDE
S1130110DF91CF9108950F931F93CF938B019C018F
S1130120C42F87B18F7C87B988B18F7E88B944305A
S113013079F018F4413031F023C0403191F040346B
S1130140C9F01EC0E9EBF0E080818C7F80831EC083
S1130150E9EBF0E080818D7F808380818160808302
S113016015C0E9EBF0E080818E7F8083808182601E
S113017080830CC0E9EBF0E080818360808306C05B
S1130180E9EBF0E080818C7F8083C1E060E074E281
S113019084EF90E0A90198010E94A707CA01B90160
S11301A060517109810991094C2F50E09A01220F85
S11301B0331F032E000C440B550B0E94A7072093FA
S11301C0B80084E08093BC00CF911F910F910895F3
S11301D094EA9093BC009091BC009923E4F7909129
S11301E0B900987F983011F09031D1F490E0880FE5
S11301F0991F862B8093BB0084E88093BC00809178
S1130200BC008823E4F78091B900887F662311F04D
S1130210803441F4611108C0883141F481E00895CB
S113022080E0089580E0089581E0089580E00895D5
S11302308093BB0084E88093BC008091BC00882339
S1130240E4F78091B900887F883211F080E0089546
S113025081E00895882321F084EC8093BC0003C0DE
S113026084E88093BC008091BC008823E4F78091EB
S1130270BB00089584E98093BC008091BC0084FD98
S1130280FCCF0895CF93DF93C62FD42F60E00E9454
S1130290E800882369F08C2F0E941801882341F01C
S11302A08D2F0E941801882319F00E943A0181E0E1
S11302B0DF91CF910895FF920F931F93CF93DF9314
S11302C02223A1F1C22F8A01F62ED82F60E00E94CA
S11302D0E800882361F18F2D0E941801882339F1E9
S11302E061E08D2F0E94E800882309F1D0E018C056
S11302F02D2F30E08C2F90E001972817390741F417
S113030080E00E942A01F801ED0FF11D808307C0EF
S113031081E00E942A01F801ED0FF11D8083DF5F67
S1130320DC1730F30E943A0181E001C081E0DF91E3
S1130330CF911F910F91FF9008950F931F93CF9327
S1130340DF93CDB7DEB72A970FB6F894DEBF0FBEA2
S1130350CDBF80E091E00E947C0060E088E30E94D1
S1130360E800182F811105C089E191E00E947C000A
S11303704EC08AEB8093BB0084E88093BC0080E08D
S113038090E005C025E32A95F1F70000019620913D
S1130390BC00222324F0843F21E0920798F3843F99
S11303A0914040F084E391E00E947C000E943A0175
S11303B010E02DC08091B900887F883209F188E46B
S11303C091E00E947C008091B900887F1F928F93F6
S11303D08EE691E09F938F938E010F5F1F4F1F93C3
S11303E00F930E941308C8010E947C000E943A01E6
S11303F00F900F900F900F900F900F9010E007C088
S11304000E943A0184E791E00E947C0011E0812F70
S11304102A960FB6F894DEBF0FBECDBFDF91CF9101
S11304201F910F910895EF92FF921F93CF93DF9343
S1130430CDB7DEB72A970FB6F894DEBF0FBECDBF97
S113044088E891E00E947C0011E023C060E0812FE5
S11304500E94E8008823E1F088EA91E00E947C0091
S11304601F921F938EE691E09F938F93CE01019686
S11304707C019F938F930E941308C7010E947C0004
S11304800E943A010F900F900F900F900F900F90D1
S11304901F5F1F37D8F286EC91E00E947C002A96F9
S11304A00FB6F894DEBF0FBECDBFDF91CF911F9181
S11304B0FF90EF900895CF93DF93EC0161E088E320
S11304C00E94E800882339F080E00E942A01888392
S11304D00E943A0181E0DF91CF9108950E945B026E
S11304E0811181E00895AF92BF92CF92DF92FF9283
S11304F00F931F93CF93DF93CDB7DEB72A970FB631
S1130500F894DEBF0FBECDBF6C015B018CEA8F8314
S113051083E38887198660E088E30E94E800F82E68
S1130520882309F48DC010E010C0E7E0F0E0EC0F80
S1130530FD1FE10FF11D80810E941801F82E811129
S113054003C00E943A017CC01F5F133070F30E9405
S11305503A0100E010E08FE39CE90197F1F700C055
S113056000000F5F1F4F0536110508F068C0CE016B
S11305700A960E946E02F82E882309F461C08A85C7
S113058088234CF326E0AE014F5F5F4F60E088E3C1
S11305900E945B01F82E882309F452C08A8190E0FE
S11305A0A0E0B0E0AC01BD01032E3CE0440F551FB8
S11305B0661F771F3A95D1F7302D9B81892F90E0E4
S11305C0A0E0B0E0880F991FAA1FBB1F880F991FD6
S11305D0AA1FBB1F880F991FAA1FBB1F880F991F33
S11305E0AA1FBB1F842B952BA62BB72B4C81242F22
S11305F022952F70822BF50180839183A283B3838C
S1130600842F8F7090E0A0E0B0E0BC015527442710
S11306109D81892F90E0A0E0B0E0BA2FA92F982FF8
S11306208827842B952BA62BB72B2E81822BF601A2
S113063080839183A283B383FF24F39401C0F12CBC
S11306408F2D2A960FB6F894DEBF0FBECDBFDF9173
S1130650CF911F910F91FF90DF90CF90BF90AF90FB
S11306600895EF92FF920F931F93CF93DF93CDB72B
S1130670DEB728970FB6F894DEBF0FBECDBF8C014E
S11306807B01BE016B5F7F4FCE0101960E94730216
S1130690882309F44CC02D813E814F815885A0E107
S11306A0B7E20E94C907052E54E196958795779580
S11306B067955A95D1F7502D0E94AC0620E030E0A2
S11306C048EC52E40E940406F7016083718382833C
S11306D0938360938A0570938B0580938C05909324
S11306E08D0569817A818B819C810E94AC0620E012
S11306F030E040E855E30E943A0720E030E048E467
S113070053E40E943A0720E030E048E452E40E94B7
S11307109705F801608371838283938360938E05C8
S113072070938F05809390059093910581E02896AE
S11307300FB6F894DEBF0FBECDBFDF91CF911F91EE
S11307400F91FF90EF900895EF92FF920F931F93F4
S1130750CF93DF93CDB7DEB763970FB6F894DEBFC0
S11307600FBECDBF8AED91E00E947C00CE010196C0
S11307700E946E02182F811105C08FEF91E00E9434
S11307807C00FDC083E292E00E947C0089811F927C
S11307908F938EE691E09F938F938E010E5F1F4F90
S11307A01F930F930E941308C8010E947C00898143
S11307B00F900F900F900F900F900F9083FF06C033
S11307C08CE392E00E947C0011E0D9C081E792E0C2
S11307D00E947C000E949D01182F811105C085EAAA
S11307E092E00E947C00CBC02FEF81EE94E0215078
S11307F080409040E1F700C00000CE0101960E94C5
S11308006E02182F811105C08BEB92E00E947C00D0
S1130810B6C082EE92E00E947C0089811F928F9381
S11308208EE691E09F938F938E010E5F1F4F1F936F
S11308300F930E941308C8010E947C0089810F90C5
S11308400F900F900F900F900F90082F087083FF58
S113085006C08EEF92E00E947C0011E090C087E217
S113086093E00E947C0048E061EE88E30E9442012C
S1130870182F811105C08FE593E00E947C007FC092
S11308808FE39CE90197F1F700C0000040E061EEBE
S113089088E30E944201182F811105C086E893E085
S11308A00E947C006CC08CEA93E00E947C009FEF65
S11308B025EA8EE0915020408040E1F700C000001E
S11308C0E12CF12C8FE39CE90197F1F700C00000C3
S11308D09FEFE91AF90A25E6E216F10430F080EEFA
S11308E093E00E947C00102F4AC0CE0101960E9422
S11308F06E02182F811105C08EEF93E00E947C00D8
S11309003EC089818823F4F28AE194E00E947C004D
S113091089811F928F938EE691E09F938F938E012E
S11309200E5F1F4F1F930F930E941308C8010E946C
S11309307C0089810F900F900F900F900F900F9073
S113094083FD18C081E394E00E947C0083E594E079
S11309500E947C00BE01645F7F4FCE0140960E94DE
S11309603103182F882359F088E794E00E947C0013
S113097011E005C08AEA94E00E947C0011E0812F16
S113098063960FB6F894DEBF0FBECDBFDF91CF9153
S11309901F910F91FF90EF900895F89481E00E94C9
S11309A0530086EC94E00E947C0041E060EA76E823
S11309B081E090E00E948B0087EF94E00E947C002D
S11309C00E9413020E94A403813029F487E195E078
S11309D00E947C0004C081E495E00E947C0078942D
S11309E008958F929F92AF92BF92CF92DF92EF922F
S11309F0FF920F931F93CF93DF93CDB7DEB7649726
S1130A000FB6F894DEBF0FBECDBF85E895E00E9417
S1130A107C0080908A0590908B05A0908C05B09006
S1130A208D05C501B4010E9476066B017C018B0122
S1130A30072E000C880B990B0E94AE069B01AC019B
S1130A40C501B4010E94970520E030E040E251E482
S1130A500E943A0720E030E040E05FE30E949805FE
S1130A600E9476064B015C010A30110524F489E5E5
S1130A7095E00E947C004AE050E0BE016F5F7F4F2A
S1130A80C6010E94E307CE0101960E947C0087E51F
S1130A9095E00E947C004AE050E0BE016F5F7F4F0A
S1130AA0C4010E94E307CE0101960E947C0087E8FE
S1130AB095E00E947C0064960FB6F894DEBF0FBEEA
S1130AC0CDBFDF91CF911F910F91FF90EF90DF90F9
S1130AD0CF90BF90AF909F908F90089562E975E09A
S1130AE086E995E00E943103882391F020919205D4
S1130AF03091930540919405509195056091960528
S1130B007091970580919805909199050E94F10440
S1130B1008950E94CD040E946E052FEF87EA91E6A6
S1130B20215080409040E1F700C00000F4CF5058BD
S1130B30BB27AA270E94AF050C9400070E94F20667
S1130B4038F00E94F90620F039F49F3F19F426F496
S1130B500C94EF060EF4E095E7FB0C94E906E92FFC
S1130B600E94110758F3BA176207730784079507A1
S1130B7020F079F4A6F50C9433070EF4E0950B2ECF
S1130B80BA2FA02D0B01B90190010C01CA01A001DB
S1130B901124FF27591B99F0593F50F4503E68F136
S1130BA01A16F040A22F232F342F4427585FF3CF77
S1130BB0469537952795A795F0405395C9F77EF448
S1130BC01F16BA0B620B730B840BBAF09150A1F091
S1130BD0FF0FBB1F661F771F881FC2F70EC0BA0F17
S1130BE0621F731F841F48F4879577956795B7959F
S1130BF0F7959E3F08F0B0CF9395880F08F099279A
S1130C00EE0F9795879508950E9418060C94000797
S1130C100E94F90658F00E94F20640F029F45F3F62
S1130C2029F00C94E90651110C9434070C94EF0646
S1130C300E94110768F39923B1F3552391F3951B8F
S1130C40550BBB27AA2762177307840738F09F5FE9
S1130C505F4F220F331F441FAA1FA9F335D00E2E56
S1130C603AF0E0E832D091505040E695001CCAF7C3
S1130C702BD0FE2F29D0660F771F881FBB1F261786
S1130C8037074807AB07B0E809F0BB0B802DBF015D
S1130C90FF2793585F4F3AF09E3F510578F00C942C
S1130CA0E9060C9434075F3FE4F3983ED4F3869549
S1130CB077956795B795F7959F5FC9F7880F911D4D
S1130CC09695879597F90895E1E0660F771F881F39
S1130CD0BB1F621773078407BA0720F0621B730BEC
S1130CE0840BBA0BEE1F88F7E09508950E947D06E9
S1130CF06894B1110C94340708950E94190788F080
S1130D009F5798F0B92F9927B751B0F0E1F0660FCB
S1130D10771F881F991F1AF0BA95C9F714C0B1300C
S1130D2091F00E943307B1E008950C943307672FC4
S1130D30782F8827B85F39F0B93FCCF3869577953B
S1130D406795B395D9F73EF4909580957095619524
S1130D507F4F8F4F9F4F0895E89409C097FB3EF44F
S1130D6090958095709561957F4F8F4F9F4F9923F4
S1130D70A9F0F92F96E9BB279395F6958795779572
S1130D806795B795F111F8CFFAF4BB0F11F460FF32
S1130D901BC06F5F7F4F8F4F9F4F16C0882311F08A
S1130DA096E911C0772321F09EE8872F762F05C09E
S1130DB0662371F096E8862F70E060E02AF09A9539
S1130DC0660F771F881FDAF7880F9695879597F92E
S1130DD0089597F99F6780E870E060E008959FEFB9
S1130DE080EC089500240A941616170618060906BE
S1130DF0089500240A94121613061406050608958D
S1130E00092E0394000C11F4882352F0BB0F40F414
S1130E10BF2B11F460FF04C06F5F7F4F8F4F9F4F54
S1130E20089557FD9058440F551F59F05F3F71F0D6
S1130E304795880F97FB991F61F09F3F79F087953D
S1130E400895121613061406551FF2CF4695F1DFC6
S1130E5008C0161617061806991FF1CF8695710556
S1130E60610508940895E894BB2766277727CB018A
S1130E7097F908950E944D070C9400070E94F2060A
S1130E8038F00E94F90620F0952311F00C94E9063D
S1130E900C94EF0611240C9434070E94110770F38C
S1130EA0959FC1F3950F50E0551F629FF001729F0B
S1130EB0BB27F00DB11D639FAA27F00DB11DAA1F1A
S1130EC0649F6627B00DA11D661F829F2227B00D67
S1130ED0A11D621F739FB00DA11D621F839FA00DF2
S1130EE0611D221F749F3327A00D611D231F849F42
S1130EF0600D211D822F762F6A2F11249F57504099
S1130F009AF0F1F088234AF0EE0FFF1FBB1F661F13
S1130F10771F881F91505040A9F79E3F510580F0DC
S1130F200C94E9060C9434075F3FE4F3983ED4F341
S1130F30869577956795B795F795E7959F5FC1F780
S1130F40FE2B880F911D9695879597F90895A1E238
S1130F501A2EAA1BBB1BFD010DC0AA1FBB1FEE1F2F
S1130F60FF1FA217B307E407F50720F0A21BB30B7A
S1130F70E40BF50B661F771F881F991F1A9469F7F6
S1130F8060957095809590959B01AC01BD01CF0152
S1130F9008950E94D407A59F900DB49F900DA49F1F
S1130FA0800D911D11240895A29FB001B39FC0012B
S1130FB0A39F700D811D1124911DB29F700D811D81
S1130FC01124911D08954532510520F4423010F04A
S1130FD00C94EE07FB011082CB010895BB274A3025
S1130FE031F4992322F4BDE2909581959F4F0C949E
S1130FF0FA07BB27FB015527AA27880F991FAA1FA9
S1131000A41710F0A41B83955051B9F7A05DAA331F
S113101008F0A95DA193009779F7B111B1931192EA
S1131020CB010C942C0AAEE0B0E0E9E1F8E00C94BA
S1131030E40A0D891E8986E08C831A8309838FEF65
S11310409FE79E838D83AE01475E5F4F6F89788DE6
S1131050CE0101960E943508EF81F885E00FF11F5B
S113106010822E96E4E00C94000BABE0B0E0EBE3CE
S1131070F8E00C94D60A6C017B018A01FC0117820A
S11310801682838181FFCCC1CE0101963C01F60119
S11310909381F70193FD859193FF81917F018823CB
S11310A009F4BAC1853239F493FD859193FF819196
S11310B07F01853229F4B60190E00E943C0AE7CF13
S11310C0912C212C312CFFE1F315D8F08B3279F0DF
S11310D038F4803279F08332A1F4232D20611DC0CD
S11310E08D3261F0803369F4232D216016C0832D85
S11310F08260382EE32DE4603E2E2AC0F32DF86082
S11311001DC037FC2DC020ED280F2A3040F08E3250
S1131110B9F436FC81C1232D2064322E19C036FE69
S113112006C08AE0989E200D1124922E11C0EAE098
S11311302E9E200D1124222EF32DF0623F2E08C086
S11311408C3621F4832D8068382E02C0883641F411
S1131150F70193FD859193FF81917F018111B3CFB5
S1131160982F9F7D9554933028F40C5F1F4F9FE375
S113117099830DC0833631F0833771F0833509F0DC
S113118059C021C0F801808189830E5F1F4F8824D4
S11311908394912C530113C02801F2E04F0E511C8B
S11311A0F801A080B18036FE03C0692D70E002C052
S11311B06FEF7FEFC5010E94210A4C018201F32DDC
S11311C0FF773F2E16C0280122E0420E511CF80181
S11311D0A080B18036FE03C0692D70E002C06FEFBD
S11311E07FEFC5010E94160A4C01F32DF0683F2ED3
S11311F0820133FC1BC0822D90E088169906B0F45E
S1131200B60180E290E00E943C0A2A94F4CFF501F2
S113121037FC859137FE81915F01B60190E00E9411
S11312203C0A21102A9421E0821A91088114910425
S113123071F7E8C0843611F0893641F5F80137FEBC
S113124007C060817181828193810C5F1F4F08C048
S113125060817181072E000C880B990B0E5F1F4F64
S1131260F32DFF763F2E97FF09C0909580957095DA
S113127061957F4F8F4F9F4FF0683F2E2AE030E0FB
S1131280A3010E94780A882E861845C0853731F458
S1131290232D2F7EB22E2AE030E025C0932D997F96
S11312A0B92E8F36C1F018F4883579F0B5C080377F
S11312B019F0883721F0B0C0E92FE061BE2EB4FEEA
S11312C00DC0FB2DF460BF2E09C034FE0AC0292FC7
S11312D02660B22E06C028E030E005C020E130E0F0
S11312E002C020E132E0F801B7FE07C060817181DD
S11312F0828193810C5F1F4F06C06081718180E001
S113130090E00E5F1F4FA3010E94780A882E861872
S1131310FB2DFF773F2E36FE0DC0232D2E7FA22EF0
S1131320891458F434FE0BC032FC09C0832D8E7E20
S1131330A82E05C0B82CA32C03C0B82C01C0B92C0E
S1131340A4FE0FC0FE01E80DF11D8081803321F45D
S11313509A2D997EA92E09C0A2FE06C0B394B39417
S113136004C08A2D867809F0B394A3FC11C0A0FEB2
S113137006C0B21488F4280C922C9B180EC0B21428
S113138060F4B60180E290E00E943C0AB394F7CF87
S1131390B21418F42B1802C0982C212CA4FE10C0EF
S11313A0B60180E390E00E943C0AA2FE17C0A1FCB3
S11313B003C088E790E002C088E590E0B6010CC065
S11313C08A2D867859F0A1FE02C08BE201C080E22A
S11313D0A7FC8DE2B60190E00E943C0A891438F41F
S11313E0B60180E390E00E943C0A9A94F7CF8A9475
S11313F0F301E80DF11D8081B60190E00E943C0AE2
S11314008110F5CF222009F442CEB60180E290E0AB
S11314100E943C0A2A94F6CFF6018681978102C085
S11314208FEF9FEF2B96E2E10C94F20AFC010590FA
S1131430615070400110D8F7809590958E0F9F1FD2
S11314400895FC016150704001900110D8F7809517
S113145090958E0F9F1F0895DC01FC01672F7191F9
S11314607723E1F7329704C07C916D937083629186
S1131470AE17BF07C8F308950F931F93CF93DF935D
S1131480FB01238121FD03C08FEF9FEF2CC022FFBE
S113149016C046815781248135814217530744F48D
S11314A0A081B1819D012F5F3F4F318320838C93B5
S11314B0268137812F5F3F4F3783268314C08B01EA
S11314C0EC01FB010084F185E02D0995892BE1F6FF
S11314D0D80116968D919C911797019617969C9317
S11314E08E931697CE01DF91CF911F910F9108959E
S11314F0FA01AA27283051F1203181F1E8946F9341
S11315006E7F6E5F7F4F8F4F9F4FAF4FB1E03ED0E6
S1131510B4E03CD0670F781F891F9A1FA11D680F84
S1131520791F8A1F911DA11D6A0F711D811D911DB7
S1131530A11D20D009F468943F912AE0269F11242C
S11315403019305D3193DEF6CF010895462F477090
S1131550405D4193B3E00FD0C9F7F6CF462F4F70EB
S1131560405D4A3318F0495D31FD4052419302D049
S1131570A9F7EACFB4E0A6959795879577956795EF
S1131580BA95C9F700976105710508959B01AC01EF
S11315900A2E06945795479537952795BA95C9F716
S11315A0620F731F841F951FA01D08952F923F92F1
S11315B04F925F926F927F928F929F92AF92BF925F
S11315C0CF92DF92EF92FF920F931F93CF93DF930B
S11315D0CDB7DEB7CA1BDB0B0FB6F894DEBF0FBE68
S11315E0CDBF09942A88398848885F846E847D84B5
S11315F08C849B84AA84B984C884DF80EE80FD80B7
S11316000C811B81AA81B981CE0FD11D0FB6F8942C
S1111610DEBF0FBECDBFED010895F894FFCFED
S113161E534F465452455345543A20496E696369B3
S113162E616E646F2E2E2E0A00534F46545245534C
S113163E45543A204552524F52204445205354416A
S113164E52540A00534F465452455345543A20546B
S113165E494D454F55540A00534F46545245534530
S113166E543A2053454E534F52204E4F2041434B34
S113167E202D2045737461646F3A20307800253034
S113168E32580A00534F465452455345543A204556
S113169E5849544F534F0A00457363616E65616E2A
S11316AE646F20646973706F73697469766F7320E5
S11316BE4932432E2E2E0A00446973706F73697477
S11316CE69766F20656E636F6E747261646F2065E8
S11316DE6E3A20307800457363616E656F20636FD8
S11316EE6D706C657461646F0A00494E49543A20FA
S11316FE56657269666963616E646F2065737461A1
S113170E646F20696E696369616C2E2E2E0A00491E
S113171E4E49543A204552524F52204C4559454E4B
S113172E444F2045535441444F20494E4943494167
S113173E4C0A00494E49543A2045737461646F2033
S113174E696E696369616C3A20307800494E495478
S113175E3A2053454E534F522059412043414C4950
S113176E425241444F202D2053616C74616E646F5C
S113177E20696E696369616C697A616369F36E0AE3
S113178E00494E49543A2053656E736F72206E6F42
S113179E2063616C69627261646F2C20696E696387
S11317AE69616E646F20736F6674207265736574FD
S11317BE2E2E2E0A00494E49543A204552524F526B
S11317CE2044452052455345540A00494E49543A43
S11317DE204552524F52204C4559454E444F2045B8
S11317EE535441444F20504F53542D524553455456
S11317FE0A00494E49543A2045737461646F20704F
S113180E6F73742D72657365743A20307800494E87
S113181E49543A2053454E534F522043414C49426A
S113182E5241444F204445535055C95320444520FA
S113183E52455345540A00494E49543A20496E7450
S113184E656E74616E646F20636F6D616E646F207C
S113185E64652063616C696272616369F36E206111
S113186E6C7465726E617469766F2E2E2E0A004941
S113187E4E49543A204552524F52204553435249F1
S113188E4249454E444F20524547495354524F20E6
S113189E307845310A00494E49543A204552524F48
S11318AE522045534352494249454E444F205345D5
S11318BE47554E444F20425954450A00494E495407
S11318CE3A20436F6D616E646F2064652063616CB2
S11318DE696272616369F36E20656E766961646F25
S11318EE2C206573706572616E646F2E2E2E0A0045
S11318FE494E49543A2054494D454F555420454E6E
S113190E2043414C494252414349D34E0A00494E69
S113191E49543A204552524F52204C4559454E4453
S113192E4F2045535441444F0A00494E49543A20DE
S113193E45737461646F2066696E616C3A20307809
S113194E00494E49543A2053454E534F52204E4F60
S113195E205345205055444F2043414C4942524157
S113196E520A00494E49543A20496E74656E7461A8
S113197E6E646F206C656374757261206469726540
S113198E6374612E2E2E0A00494E49543A204C455A
S113199E43545552412044495245435441204558DD
S11319AE49544F5341202D2053656E736F72206638
S11319BE756E63696F6E61210A00494E49543A206F
S11319CE43414C494252414349D34E204558495410
S11319DE4F5341210A00436F6D756E6963616369EC
S11319EE6F6E2073657269616C20696E69636961DB
S11319FE6C697A61646120636F7272656374616D80
S1131A0E656E7465200A00436F6D756E696361635C
S1131A1E696F6E2049324320696E696369616C692E
S1131A2E7A616461200A0053656E736F72204148B7
S1131A3E54313020696E696369616C697A61646FCF
S1131A4E20636F7272656374616D656E7465200ACE
S1131A5E0053656E736F722041485431303A2045FD
S1131A6E52524F52200A002E00300025002C2054D2
S1131A7E656D703A2000430A004572726F72206CD5
S1131A8E6579656E646F206461746F73206372751B
S10D1A9E646F730A004800480A0050
S9030000FC
