:100000000C943B000C9458000C9458000C9458002D
:100010000C9458000C9458000C9458000C94580000
:100020000C9458000C9458000C9458000C945800F0
:100030000C9458000C9458000C9458000C945800E0
:100040000C9458000C9458000C94F4010C94580033
:100050000C9458000C9458000C9458000C945800C0
:100060000C9458000C94580072007C00860090009C
:100070009A00A400AE0011241FBECFEFD8E0DEBF6F
:10008000CDBF11E0A0E0B1E0E4E6F4E002C00590ED
:100090000D92A431B107D9F721E0A4E1B1E001C08C
:1000A0001D92A631B207E1F70E94A3010C94300221
:1000B0000C940000E82F84FF5BC084B18C6284B98B
:1000C00084B18F7E84B98CB580618CBDE7708E2F32
:1000D00090E08730910508F051C0FC01EC5CFF4FC7
:1000E0000C9404028CB58E7F8CBD8CB58D7F8CBD3D
:1000F0008DB581608DBD42C08CB58E7F8CBD8CB5B9
:100100008D7F8CBD8DB58E7F8DBD38C08CB58160E7
:100110008CBD8CB58D7F8CBD8DB581608DBD2EC0A5
:100120008CB581608CBD8CB58D7F8CBD8DB58E7F7F
:100130008DBD24C08CB58E7F8CBD8CB582608CBD8E
:100140008DB581608DBD1AC08CB58E7F8CBD8CB590
:1001500082608CBD8DB58E7F8DBD10C08CB58160E9
:100160008CBD8CB582608CBD8DB58E7F8DBD06C07B
:1001700084B1806184B984B1837D84B98CB5462B08
:10018000242B282B20642CBD08958EBD08950DB41A
:1001900007FEFDCF8EB50895882319F0813029F030
:1001A00008C085B18B7F85B9089585B1846085B914
:1001B000089585B18B7F85B908951092C50097E6A3
:1001C0009093C400A1ECB0E01C92E2ECF0E010824D
:1001D00090819F73908390819F7C90839081977F83
:1001E00090839081966090839C9198619C938130DC
:1001F00029F4E1ECF0E0808180688083089590919B
:10020000C00095FFFCCF8093C6000895CF93DF9385
:10021000EC01892B21F406C021960E94FF00888101
:100220008111FACFDF91CF910895F89420E040E05A
:1002300060E086E50E945A0080E090E00E94DD00C8
:100240008AB1886F8AB987B1876087B97894089531
:1002500080FF04C09BB198609BB903C09BB1977F9E
:100260009BB981FF04C09BB190619BB903C09BB156
:100270009F7E9BB982FF04C09BB190629BB903C073
:100280009BB19F7D9BB983FF04C09BB190649BB9D8
:1002900003C09BB19F7B9BB984FF04C09BB1906856
:1002A0009BB903C09BB19F779BB985FF04C098B1F0
:1002B000916098B903C098B19E7F98B986FF04C039
:1002C00098B1926098B903C098B19D7F98B988237E
:1002D00024F488B1846088B9089588B18B7F88B987
:1002E00008958091C0008823E4F78091C6000895A6
:1002F000EF92FF921F93CF93DF9300D000D0CDB742
:10030000DEB719821A821B821C8210E00CC0E12E1B
:10031000F12C0E947101E1E0F0E0EC0FFD1FEE0D09
:10032000FF1D80831F5F133090F3CE0101960E9462
:100330000A020F900F900F900F90DF91CF911F91B5
:10034000FF90EF9008950E941501809115018C3463
:1003500019F08035B1F0F9CF0E9478018093140133
:10036000809114010E94280180E00E94CC008091BD
:1003700014010E94C5000E94C70081E00E94CC00C9
:10038000E4CF80E00E94CC0081E40E94C5000E947E
:10039000C70081E00E94CC000E94C70080E091E08D
:1003A0000E9406018EB590E00E94FF0087E091E078
:1003B0000E94060180E00E94CC0082E40E94C500F9
:1003C0000E94C70081E00E94CC000E94C70089E023
:1003D00091E00E9406018EB590E00E94FF0080E14E
:1003E00091E00E940601B1CF1F920F920FB60F92BB
:1003F00011248F938091C600809315018F910F90E7
:100400000FBE0F901F901895EE0FFF1F0590F491EF
:10041000E02D0994FC0188279927E8942191203246
:10042000E9F3293010F02E30C8F32B3241F02D3291
:1004300039F4689404C00E942802820F911D219112
:1004400020532A30C0F31EF4909581959F4F089554
:100450007AE0979F902D879F802D910D112408950C
:04046000F894FFCF3E
:10046400504F54413A20000A00504F54423A200061
:040474002F6E0000E7
:00000001FF
