:100000000C9434000C9451000C9451000C94510049
:100010000C94D7000C9451000C9451000C94510096
:100020000C9451000C9451000C9451000C9451000C
:100030000C9451000C9451000C9451000C945100FC
:100040000C9451000C9451000C9451000C945100EC
:100050000C9451000C9451000C9451000C945100DC
:100060000C9451000C94510011241FBECFEFD8E026
:10007000DEBFCDBF11E0A0E0B1E0E4EDF1E002C0F1
:1000800005900D92A031B107D9F721E0A0E1B1E0D0
:1000900001C01D92A131B207E1F70E94CC000C947F
:1000A000E8000C940000F894E1ECF0E08081877E99
:1000B000808387B1887F87B987E088B99FEF9AB935
:1000C00084B992E09093680080936C0078940895CE
:1000D000CF93DF93CDB7DEB760970FB6F894DEBF4E
:1000E0000FBECDBF80E1E0E0F1E0DE0111960190AE
:1000F0000D928A95E1F71BB88E818BB92FEF83EDB6
:1001000090E3215080409040E1F700C000001BB810
:100110008D818BB92FEF83ED90E32150804090408B
:10012000E1F700C000001BB88C818BB92FEF83ED85
:1001300090E3215080409040E1F700C000001BB8E0
:100140008B818BB92FEF83ED90E32150804090405D
:10015000E1F700C000001BB88A818BB92FEF83ED57
:1001600090E3215080409040E1F700C000001BB8B0
:1001700089818BB92FEF83ED90E32150804090402F
:10018000E1F700C0000060960FB6F894DEBF0FBE26
:10019000CDBFDF91CF9108950E945300809110014F
:1001A0008130E1F70E94680010921001F7CF1F9292
:1001B0000F920FB60F9211248F93309903C081E0F4
:1001C000809310018F910F900FBE0F901F90189584
:0401D000F894FFCFD1
:1001D4003F065B4F666D5F077F77774F395E7971B6
:00000001FF
