S01800004553434C41564F202853454E534F52292E73726563B4
S11300000C9434000C9446000C9446000C94460066
S11300100C9446000C9446000C9446000C94460044
S11300200C9446000C9446000C9446000C94460034
S11300300C9446000C9446000C9446000C94460024
S11300400C9446000C9446000C9446000C94460014
S11300500C9446000C9446000C9446000C94460004
S11300600C941C010C94460011241FBECFEFD8E061
S1130070DEBFCDBF21E0A0E0B1E001C01D92A230FF
S1130080B207E1F70E9449010C9479010C94000035
S113009097B19F7C97B9880F8093BA0085E48093C9
S11300A0BC00089594B1906294B9882321F085B17D
S11300B0806285B9089585B18F7D85B90895CF9300
S11300C0DF93D82FC0E019C081E00E9452002FEFC7
S11300D083EC99E0215080409040E1F700C000009B
S11300E080E00E9452002FEF83EC99E02150804081
S11300F09040E1F700C00000CF5FCD1728F3DF91F7
S1130100CF910895CF93DF9300D000D01F92CDB745
S1130110DEB7FE01319685E0DF011D928A95E9F78D
S11301208AB180648AB98BB18F7B8BB9BFEF20EE23
S113013080E0B15020408040E1F700C000008BB166
S113014080648BB995ED9A95F1F700008AB18F7BA5
S11301508AB988EE93E005C00197A5E0AA95F1F766
S113016000004E9B02C00097B9F7892B09F455C0D3
S113017088EE93E005C00197B5E0BA95F1F7000069
S11301804E9902C00097B9F7892B09F448C088EE4C
S113019093E005C0019725E02A95F1F700004E9BF6
S11301A002C00097B9F7892BE1F160E023C04E9BB0
S11301B0FECF90EA9A95F1F74E9B16C047E050E0C7
S11301C0481B510921E030E002C0220F331F4A9539
S11301D0E2F7E1E0F0E0EC0FFD1FE60FF11D908186
S11301E0292B20834E99FECF8F5F01C080E0883099
S11301F0F0F26F5F6530D0F34D8150E089812A8140
S113020030E0280F311D8B81280F311D9C81290F6F
S1130210311D4217530739F407C08FEF05C08EEF25
S113022003C08DEF01C08CEF0F900F900F900F90D3
S11302300F90DF91CF9108951F920F920FB60F92F6
S113024011248F938091B900887F803849F018F485
S1130250803631F015C0883A39F0883B69F010C017
S113026085EC8093BC000FC0809101018093BB009A
S113027085EC8093BC0007C085EC8093BC0003C070
S113028085EC8093BC008F910F900FBE0F901F9050
S1130290189580E00E94520080E40E9448007894FF
S11302A00E9482008823A4F080930101109200012F
S11302B081E00E9452002FEF80E792E021508040BD
S11302C09040E1F700C0000080E00E94520007C0A7
S11302D0819580930001809100010E945F002FEFBF
S11302E087EA91E6215080409040E1F700C0000089
S10902F0D7CFF894FFCF04
S9030000FC
