:100000000C94F2000C940F010C940F010C940F014E
:100010000C940F010C940F010C940F010C940F0120
:100020000C940F010C940F010C940F010C940F0110
:100030000C940F010C940F010C940F010C940F0100
:100040000C940F010C940F010C940F010C940F01F0
:100050000C940F010C940F010C940F010C940F01E0
:100060000C940F010C940F0107634236B79BD8A77D
:100070001A39685618AEBAAB558C1D3CB7CC5763CD
:10008000BD6DEDFD753EF6177231BF000000803F7B
:1000900008000000BE922449123EABAAAA2ABECD97
:1000A000CCCC4C3E00000080BEABAAAAAA3E000009
:1000B0000000BF000000803F000000000008417801
:1000C000D3BB4387D1133D190E3CC3BD4282AD2B38
:1000D0003E68EC8276BED98FE1A93E4C80EFFFBE30
:1000E00001C4FF7F3F000000000000407A10F35A77
:1000F00000A0724E18090010A5D4E80000E8764868
:10010000170000E40B54020000CA9A3B000000E113
:10011000F505000080969800000040420F000000A6
:10012000A08601000000102700000000E803000086
:1001300000006400000000000A0000000000010050
:10014000000000002C76D888DC674F0823DFC1DF71
:10015000AE59E1B1B796E5E3E453C63AE651997674
:1001600096E8E6C28426EB898C9B62ED407C6FFCAE
:10017000EFBC9C9F40F2BAA56FA5F490055A2AF7F0
:100180005C936B6CF9676DC11BFCE0E40D47FEF5F9
:1001900020E6B500D0ED902E030094357705008061
:1001A000841E080000204E0A000000C80C333333C0
:1001B000330F986E12831141EF8D2114893BE65560
:1001C00016CFFEE6DB18D1844B381BF77C1D901D43
:1001D000A4BBE424203284725E228100C9F124ECA5
:1001E000A1E53D2711241FBECFEFD8E0DEBFCDBF74
:1001F00011E0A0E0B1E0E2E2FDE102C005900D9265
:10020000A63AB107D9F721E0A6EAB1E001C01D92F4
:10021000AE3BB207E1F70E9453080C948F0E0C948A
:1002200000000F931F93CF938B019C01C42F87B1C4
:100230008F7C87B9443079F018F4413031F023C015
:10024000403191F04034C9F01EC0E9EBF0E080810C
:100250008C7F80831EC0E9EBF0E080818D7F8083FE
:1002600080818160808315C0E9EBF0E080818E7F22
:1002700080838081826080830CC0E9EBF0E0808124
:100280008360808306C0E9EBF0E080818C7F80830F
:10029000C1E060E074E284EF90E0A90198010E945F
:1002A000E40BCA01B90160517109810991094C2F10
:1002B00050E09A01220F331F032E000C440B550B04
:1002C0000E94E40B2093B800ECEBF0E080818460A6
:1002D0008083CF911F910F91089584EA8093BC0091
:1002E0008091BC008823E4F7089584E98093BC00E2
:1002F00008958093BB0084E88093BC008091BC008B
:100300008823E4F78091B900887F883131F0883202
:1003100031F0803429F481E0089581E0089581E08E
:100320000895DC01662331F0ECEBF0E090819064FD
:10033000908305C0ECEBF0E090819F7B9083ECEB29
:10034000F0E09081906890839091BC009923E4F74D
:100350009091B900987F983511F0903529F48091EB
:10036000BB008C9381E00895892F089588B1816046
:1003700088B985E08A95F1F7000088B18E7F88B949
:100380008FE891E00197F1F700C0000008959BB15C
:10039000282F30E0220F331F220F331F9370292B99
:1003A0002BB995B19C7F8295869586958370892B14
:1003B00085B90E94B601089598B19D7F98B90E94B1
:1003C000C701089598B1926098B90E94C701089535
:1003D000CF93DF93EC0103C021960E94E201888154
:1003E0008111FACFDF91CF910895611102C0805839
:1003F00001C080540E94DC01089581E00E94DC016C
:100400008FE19EE40197F1F700C00000089587B1E5
:10041000836087B98AB18C6F8AB984B1836084B9EB
:100420002FEF80E792E0215080409040E1F700C03C
:10043000000088B18D7F88B980E30E94C7018FE1F9
:100440009EE40197F1F700C0000080E30E94C7011D
:100450008FE891E00197F1F700C0000080E30E946F
:10046000C7018FE891E00197F1F700C0000088E331
:100470000E94C7018FE891E00197F1F700C00000EA
:100480008CE00E94C7018FE891E00197F1F700C06E
:10049000000086E00E94C7018FE891E00197F1F724
:1004A00000C000000E94FD01089560E080E00E940D
:1004B000F50180E091E00E94E80160E089E00E949F
:1004C000F50183E091E00E94E80161E080E00E9494
:1004D000F50186E091E00E94E80180E00DC0E82F80
:1004E000F0E0EE0FFF1FEE0FFF1FE655FE4F1082EC
:1004F0001182128213828F5F853088F30895CF9323
:10050000C82F0E946D018C2F880F0E947901C82F7F
:100510000E9475018C2FCF9108950E946D0180E794
:100520000E9479018AEB0E9479010E9475012FEFE8
:1005300089EF90E0215080409040E1F700C000003A
:1005400008951F93CF93DF931F92CDB7DEB7198223
:100550000E946D0181E70E947901182F811103C06B
:100560000E94750108C060E0CE0101960E949101D1
:100570000E9475011981812F0F90DF91CF911F91FA
:100580000895CF930E948D020E946D0180E70E9422
:100590007901C82F811103C00E94750118C081EE36
:1005A0000E94790188E00E94790180E00E9479012F
:1005B0000E9475018FE39CE90197F1F700C00000EC
:1005C0000E94A1028876C1E0883009F0C0E08C2F3B
:1005D000CF9108951F93CF93DF9300D000D000D028
:1005E000CDB7DEB7FE01319686E0DF011D928A9518
:1005F000E9F70E946D0180E70E947901811107C02F
:100600000E94750150E040E030E82FEB83C08CEA97
:100610000E94790183E30E94790180E00E947901C0
:100620000E94750114E18FE19EE40197F1F700C08B
:1006300000000E94A102882314F01150A1F7112399
:1006400009F464C00E946D0181E70E947901811163
:1006500017C00E94750150E040E030E82FEB5AC00F
:10066000812F90E061E0153008F060E0A1E0B0E09B
:10067000AC0FBD1F8A0F9B1F0E9491011F5F01C01D
:1006800010E0163068F30E9475016A81862F90E0B1
:10069000A0E0B0E0AC01BD01032E3CE0440F551FCB
:1006A000661F771F3A95D1F7302D8B8190E0A0E03F
:1006B000B0E0880F991FAA1FBB1F880F991FAA1FA0
:1006C000BB1F880F991FAA1FBB1F880F991FAA1F46
:1006D000BB1F842B952BA62BB72B2C8122952F701B
:1006E000BC01CD01622B0E943B0920E030E040E8D4
:1006F00055E30E94F20920E030E048EC52E40E9409
:10070000F209562F472F382F292F04C050E040E020
:1007100030E82FEB652F742F832F922F26960FB67C
:10072000F894DEBF0FBECDBFDF91CF911F9108952A
:10073000CF930E946D0182E70E947901C82F811139
:1007400003C00E94750122C080E80E94790183E005
:100750000E9479010E9475010E946D0182E70E944A
:100760007901C82F811103C00E9475010FC081E873
:100770000E94790182E00E9479010E9475018FE355
:100780009CE90197F1F700C00000C1E08C2FCF91E8
:100790000895CF93DF9388E30E947F02C6EAD1E0F9
:1007A000888389E30E947F028A838881811114C033
:1007B0002BC00E94C102882321F081E08093A70111
:1007C0000EC02FEF81EE94E0215080409040E1F781
:1007D00000C00000CF5F01C0C0E0C53050F3809181
:1007E000A701811122C060E00E94F50189E091E03B
:1007F0000E94E8012FEF87EA91E621508040904067
:10080000E1F700C0000011C060E080E00E94F50147
:100810008CE191E00E94E8012FEF87EA91E62150F8
:1008200080409040E1F700C000008091A801811154
:1008300014C02BC00E949803882321F081E080938C
:10084000A9010EC02FEF81EE94E02150804090402E
:10085000E1F700C00000CF5F01C0C0E0C53050F339
:100860008091A901811122C061E00E94F50185E219
:1008700091E00E94E8012FEF87EA91E62150804045
:100880009040E1F700C0000011C061E080E00E94EC
:10089000F5018AE391E00E94E8012FEF87EA91E6F3
:1008A000215080409040E1F700C00000DF91CF91DF
:1008B00008950E94070241E060EA76E881E090E056
:1008C0000E9411010E9455020E94C90308950F93CE
:1008D0001F93CF93DF9300D000D0CDB7DEB70E9437
:1008E0006D0182E70E947901811106C00E947501A5
:1008F00060E070E0CB0142C08CE80E9479010E9468
:1009000075010E946D0183E70E947901811116C073
:100910000E94750160E070E0CB0130C0812F90E053
:1009200061E0133008F060E021E030E02C0F3D1F63
:10093000820F931F0E9491011F5F01C010E01430CD
:1009400068F30E9475014A8150E0542F4427898141
:10095000482B8C8190E0982F88272B81822B60E098
:1009600070E0BA0155274427A0E0B0E08A019B015E
:10097000082B192B2A2B3B2BC901B8010F900F9084
:100980000F900F90DF91CF911F910F9108954F928B
:100990005F926F927F928F929F92AF92BF92CF920F
:1009A000DF92EF92FF920F931F93611571058105FE
:1009B000910509F4C2C089019A016B017C01C9014A
:1009C000B8010E943B094B015C01C701B6010E94BE
:1009D0003B092B013C019B01AC01C501B4010E9404
:1009E000C9086B017C0120E030E040E05FE30E9439
:1009F000C40818166CF12CE639E049EF5CE3C3013A
:100A0000B2010E94F2094B015C0126EB33EF4DE786
:100A10005DE3C301B2010E94F2092B013C0123E313
:100A200033E343EB5FE3C701B6010E945F0A9B011A
:100A3000AC01C301B2010E94F2099B01AC01C501E6
:100A4000B4010E945708562F472F382F292F7EC0F8
:100A500026EF38E24CE15FE3C701B6010E94C4080B
:100A60001816ECF024E330E847EB5CE3C301B20175
:100A70000E94F2096B017C0126EB33EF4DEF5CE342
:100A8000C501B4010E94F2099B01AC01C701B60186
:100A90000E945708562F472F382F292F57C02DEC6B
:100AA0003CEC4CE45FE3C701B6010E94C408181691
:100AB000ECF027E137EB41E55CE3C301B2010E94B2
:100AC000F2096B017C012AED3CEA4AE75CE3C501CF
:100AD000B4010E94F2099B01AC01C701B6010E945A
:100AE0005708562F472F382F292F30C026E636E6D5
:100AF00046EA5FE3C701B6010E94C408181614F164
:100B000029E73DE54FEB5AE3C301B2010E94F20928
:100B10006B017C0127EF3CEC42E95AE3C501B401CB
:100B20000E94F2099B01AC01C701B6010E9457085F
:100B3000562F472F382F292F09C050E040E030E0D2
:100B400020E004C050E040E030E020E0652F742F4A
:100B5000832F922F1F910F91FF90EF90DF90CF90F6
:100B6000BF90AF909F908F907F906F905F904F90CD
:100B70000895CF92DF92EF92FF920F931F93CF933E
:100B8000DF93CDB7DEB728970FB6F894DEBF0FBE60
:100B9000CDBF6B017C0160E082E00E94F50120E0A6
:100BA00030E0A901C701B6010E94C40888232CF4D3
:100BB00085E491E00E94E8011FC020E030E048ECAD
:100BC00052E4C701B6010E94ED0918162CF48CE41A
:100BD00091E00E94E80110C08E010F5F1F4F21E0DD
:100BE00045E0C701B6010E94060CC8010E94E80159
:100BF00083E591E00E94E80128960FB6F894DEBFE5
:100C00000FBECDBFDF91CF911F910F91FF90EF905D
:100C1000DF90CF900895CF92DF92EF92FF920F93E3
:100C20001F93CF93DF9300D000D000D0CDB7DEB7B5
:100C30006B017C0160E08BE00E94F50120E030E078
:100C400046EC52ECC701B6010E94C40818162CF0FD
:100C500085E591E00E94E8011BC020E030E040E221
:100C600052ECC701B6010E94C40818162CF083E7A5
:100C700091E00E94E8010CC08E010F5F1F4F21E040
:100C800045E0C701B6010E94060CC8010E94E801B8
:100C900026960FB6F894DEBF0FBECDBFDF91CF9181
:100CA0001F910F91FF90EF90DF90CF900895CF921A
:100CB000DF92EF92FF920F931F93CF93DF93CDB705
:100CC000DEB728970FB6F894DEBF0FBECDBF6B011D
:100CD0007C0161E082E00E94F50120E030E0A901A2
:100CE000C701B6010E94C40888232CF48BE591E06B
:100CF0000E94E80152C020E030E04AE754E4C70116
:100D0000B6010E94C40888238CF48E010F5F1F4F28
:100D100021E045E0C701B6010E94060CC8010E940F
:100D2000E80184E691E00E94E80137C020E030E469
:100D30004CE156E4C701B6010E94C4088823BCF404
:100D400020E030E04AE754E4C701B6010E94C90838
:100D50008E010F5F1F4F22E044E00E94060CC80185
:100D60000E94E80188E691E00E94E80116C020E0B8
:100D700030E04AE754E4C701B6010E94C9088E0179
:100D80000F5F1F4F21E045E00E94060CC8010E9442
:100D9000E80189E691E00E94E80128960FB6F894F0
:100DA000DEBF0FBECDBFDF91CF911F910F91FF909E
:100DB000EF90DF90CF9008951F93CF93DF931F9212
:100DC000CDB7DEB710E02FC00E946D0181E80E9410
:100DD0007901811109C00E9475018FE39CE9019797
:100DE000F1F700C000001EC060E0CE0101960E9435
:100DF0009101882379F00E947501698188E2860F4C
:100E0000893740F4062E000C770B880B990B0E9453
:100E10003D090FC00E9475018FE39CE90197F1F72E
:100E200000C000001F5F133078F260E070E088ECD3
:100E300092EC0F90DF91CF911F910895EF92FF9266
:100E40000F931F93CF93DF93CDB7DEB72C970FB6D9
:100E5000F894DEBF0FBECDBF69837A838B839C83FA
:100E60002D833E834F835887E986FA860B871C873C
:100E70000E946D0180EA0E94790181110CC00EC0B0
:100E8000E1E0F0E0EC0FFD1FE10FF11D80810E9419
:100E900079011F5F01C010E01C3090F30E947501C2
:100EA0002C960FB6F894DEBF0FBECDBFDF91CF9169
:100EB0001F910F91FF90EF9008958091A6018823D4
:100EC00051F18091A701882331F10E94EA022B01A0
:100ED0003C0120E030E0A9010E94C408882354F0BE
:100EE00020E030E048EC52E4C301B2010E94ED0979
:100EF00018160CF560E080E00E94F5018DE691E0A7
:100F00000E94E8010F2E412C512CF0E86F2EFFEBD0
:100F10007F2EF02D10C060E080E00E94F50189E78F
:100F200091E00E94E8010F2E412C512CF0E86F2E29
:100F3000FFEB7F2EF02D8091A801882341F1809155
:100F4000A901882321F10E946704611571058105BB
:100F5000910561F09B01AC0144275527BC0188270E
:100F600099270E94C7046B017C0121C061E080E0E9
:100F70000E94F50186E891E00E94E8010F2EC12C45
:100F8000D12CF0E8EF2EFFEBFF2EF02D10C061E02A
:100F900080E00E94F50182E991E00E94E8010F2EB5
:100FA000C12CD12CF0E8EF2EFFEBFF2EF02D0E948C
:100FB000DC064B015C0120E030E040E252EC0E9494
:100FC000C408882354F020E030E040EA52E4C50130
:100FD000B4010E94ED09181684F460E089E00E94D3
:100FE000F5018EE991E00E94E8010F2E812C912CF1
:100FF000F8ECAF2EF2ECBF2EF02D20E030E0A9018E
:10100000C301B2010E94ED09882324F0C301B2019B
:101010000E94B90520E030E040E252ECC501B40185
:101020000E94ED09181624F4C501B4010E940B06B4
:1010300020E030E0A901C701B6010E94ED09882334
:1010400024F0C701B6010E94570620E030E0A90154
:10105000C301B2010E94ED098823DCF020E030E0FA
:1010600040E252ECC501B4010E94ED0918168CF45F
:1010700020E030E0A901C701B6010E94ED098823F4
:1010800044F087017601A3019201C501B4010E94D9
:101090001E072FEF83ED90E3215080409040E1F751
:1010A00000C000000ACF0E9459040E945D075058FA
:1010B000BB27AA270E946F080C94B3090E94A509B8
:1010C00038F00E94AC0920F039F49F3F19F426F45F
:1010D0000C94A2090EF4E095E7FB0C949C09E92F0F
:1010E0000E94C40958F3BA1762077307840795076B
:1010F00020F079F4A6F50C94E6090EF4E0950B2E99
:10110000BA2FA02D0B01B90190010C01CA01A00159
:101110001124FF27591B99F0593F50F4503E68F1B4
:101120001A16F040A22F232F342F4427585FF3CFF5
:10113000469537952795A795F0405395C9F77EF4C6
:101140001F16BA0B620B730B840BBAF09150A1F00F
:10115000FF0FBB1F661F771F881FC2F70EC0BA0F95
:10116000621F731F841F48F4879577956795B7951D
:10117000F7959E3F08F0B0CF9395880F08F0992718
:10118000EE0F9795879508950E94780908F481E0FD
:1011900008950E94DD080C94B3090E94AC0958F030
:1011A0000E94A50940F029F45F3F29F00C949C09A6
:1011B00051110C94E7090C94A2090E94C40968F328
:1011C0009923B1F3552391F3951B550BBB27AA2700
:1011D00062177307840738F09F5F5F4F220F331F3A
:1011E000441FAA1FA9F335D00E2E3AF0E0E832D002
:1011F00091505040E695001CCAF72BD0FE2F29D005
:10120000660F771F881FBB1F261737074807AB07D6
:10121000B0E809F0BB0B802DBF01FF2793585F4F4B
:101220003AF09E3F510578F00C949C090C94E70924
:101230005F3FE4F3983ED4F3869577956795B7952D
:10124000F7959F5FC9F7880F911D9695879597F938
:101250000895E1E0660F771F881FBB1F62177307B1
:101260008407BA0720F0621B730B840BBA0BEE1FC6
:1012700088F7E0950895E89409C097FB3EF49095AF
:101280008095709561957F4F8F4F9F4F9923A9F05F
:10129000F92F96E9BB279395F695879577956795EE
:1012A000B795F111F8CFFAF4BB0F11F460FF1BC032
:1012B0006F5F7F4F8F4F9F4F16C0882311F096E9C5
:1012C00011C0772321F09EE8872F762F05C0662373
:1012D00071F096E8862F70E060E02AF09A95660F2C
:1012E000771F881FDAF7880F9695879597F90895E5
:1012F000990F0008550FAA0BE0E8FEEF1616170627
:10130000E807F907C0F012161306E407F50798F08E
:10131000621B730B840B950B39F40A2661F0232BA7
:10132000242B252B21F408950A2609F4A140A69523
:101330008FEF811D811D089597F99F6780E870E008
:1013400060E008959FEF80EC089500240A9416163B
:10135000170618060906089500240A9412161306A3
:10136000140605060895092E0394000C11F4882331
:1013700052F0BB0F40F4BF2B11F460FF04C06F5F4D
:101380007F4F8F4F9F4F089557FD9058440F551F23
:1013900059F05F3F71F04795880F97FB991F61F0F7
:1013A0009F3F79F087950895121613061406551F6E
:1013B000F2CF4695F1DF08C0161617061806991FDA
:1013C000F1CF86957105610508940895E894BB27CF
:1013D00066277727CB0197F908950E94780908F4CA
:1013E0008FEF08950E94050A0C94B3090E94A50985
:1013F00038F00E94AC0920F0952311F00C949C0960
:101400000C94A20911240C94E7090E94C40970F3FA
:10141000959FC1F3950F50E0551F629FF001729F99
:10142000BB27F00DB11D639FAA27F00DB11DAA1FA8
:10143000649F6627B00DA11D661F829F2227B00DF5
:10144000A11D621F739FB00DA11D621F839FA00D80
:10145000611D221F749F3327A00D611D231F849FD0
:10146000600D211D822F762F6A2F11249F57504027
:101470009AF0F1F088234AF0EE0FFF1FBB1F661FA2
:10148000771F881F91505040A9F79E3F510580F06B
:101490000C949C090C94E7095F3FE4F3983ED4F365
:1014A000869577956795B795F795E7959F5FC1F70F
:1014B000FE2B880F911D9695879597F90895FA014F
:1014C000EE0FFF1F309621053105A1F16115710561
:1014D00061F48038BFE39B0749F168949038810537
:1014E00061F08038BFEF9B0741F099234AF5FF3F39
:1014F000E1053105210519F1E8940894E795D90132
:10150000AA2329F4AB2FBE2FF85FD0F310C0FF5FE2
:1015100070F4A695E0F7F73950F019F0FF3A38F477
:101520009F779F930DD00F9007FC9058089546F039
:101530000C94A20960E070E080E89FE308954FE713
:101540009F775F934F933F932F930E945A0B2F9156
:101550003F914F915F910E94F2090C94B70A29F4D0
:1015600016F00C949C090C94E6090C94A2090E94B4
:10157000CC09A8F39638A0F707F80F92E8942BE36C
:101580003AEA48EB5FE70E94080A0F920F920F9227
:101590004DB75EB70F920E94A20BE8E6F0E00E9402
:1015A000E90A4F915F91EF91FF91E595EE1FFF1FC3
:1015B00049F0FE57E0684427EE0F441FFA95E1F723
:1015C0004195550B0E941C0B0F9007FE0C94100BBD
:1015D0000895DF93CF931F930F93FF92EF92DF92C3
:1015E0007B018C01689406C0DA2EEF010E94050A87
:1015F000FE01E894A5912591359145915591A6F369
:10160000EF010E946F08FE019701A801DA9469F7C3
:10161000DF90EF90FF900F911F91CF91DF91089590
:101620009B01AC0160E070E080E89FE30C94C90886
:101630000C949C090C94D60B0E94CC09D8F39923E6
:10164000C9F3940F511DA3F39150504094F059F0F9
:10165000882332F0660F771F881F91505040C1F7E2
:101660009E3F51052CF7880F911D9695879597F908
:1016700008955F3FACF0983E9CF0BB278695779528
:101680006795B79508F4B1609395C1F7BB0F58F70C
:1016900011F460FFE8CF6F5F7F4F8F4F9F4FE3CF15
:1016A0000C94E70916F00C94D60B0C94A2096894DC
:1016B0000C949C090E94CC09A8F39923C1F3AEF3C2
:1016C000DF93CF931F930F93FF92C92FDD278823BA
:1016D0002AF02197660F771F881FDAF720E030E0A5
:1016E00040E85FEB9FE3883920F0803E38F0219698
:1016F0008F770E945808E0E9F0E004C00E94580883
:10170000EDEBF0E00E94E90A8B01BE01EC01FB2E3B
:101710006F5771097595771F880B990B0E943D09CA
:1017200028E132E741E35FE30E94050AAF2D98010B
:10173000AE01FF900F911F91CF91DF910E946F0832
:101740000C94B309FA01DC01AA0FBB1F9B01AC0189
:10175000BF5728F4222733274427507820C0B75199
:1017600090F4AB2F0024469537952795011CA3953F
:10177000D2F3002071F0220F331F441FB395DAF328
:101780000ED00C94570861307105A0E88A07B9465D
:1017900030F49B01AC016627772788279078309634
:1017A00021F0208331834283538308959F3F31F09A
:1017B000915020F4879577956795B795880F911D7F
:1017C0009695879597F90895A1E21A2EAA1BBB1B3F
:1017D000FD010DC0AA1FBB1FEE1FFF1FA217B307FD
:1017E000E407F50720F0A21BB30BE40BF50B661F13
:1017F000771F881F991F1A9469F7609570958095D7
:1018000090959B01AC01BD01CF010895EF920F931C
:101810001F93CF93DF93E80147FD02C034E001C07E
:1018200034E1042E000C550B57FF03C05195419530
:101830005109E32E022F242FAE010E94260CCE0167
:10184000DF91CF911F910F91EF900895A9E0B0E043
:10185000ECE2FCE00C945E0E6A01122FB02E2BE33A
:10186000201720F0FF24F394F00E02C02CE3F22E98
:101870000F2D27E0AE014F5F5F4F0E94800DBC012E
:101880004981842F8970813031F0E1FC06C0E0FE8F
:1018900006C090E205C09DE203C09BE201C090E05B
:1018A0005E2D507143FF3CC0911102C083E001C026
:1018B00084E0811718F4212F281B01C020E051116A
:1018C0000BC0F601822F30E2882319F0319381504A
:1018D000FBCFC20ED11C20E0992329F0D6019C93A6
:1018E000F60131966F01C6010396E2FE0AC03EE49E
:1018F000D6013C9341E411964C93119712963C9378
:1019000006C03EE6F601308341E641833283FC01A6
:10191000322F40E2332309F442C041933150FACFD1
:1019200042FF44C0911102C083E001C084E08117EE
:1019300018F4212F281B01C020E051110BC0F60123
:10194000822F30E2882319F031938150FBCFC20EF1
:10195000D11C20E0992329F0D6019C93F601319601
:101960006F01C6010396E2FE0BC039E4D6013C9339
:101970003EE411963C93119736E412963C9307C0CF
:1019800039E6F60130833EE6318336E63283FC01E8
:10199000322F40E2332319F041933150FBCFFC0149
:1019A000E20FF11D10828EEF9FEFA6C021E030E024
:1019B000911102C020E030E0161617061CF4FB015E
:1019C000319602C0E1E0F0E02E0F3F1FBB2021F076
:1019D000EB2DF0E0319602C0E0E0F0E02E0F3F1F6B
:1019E000E12FF0E02E173F071CF4121B212F01C03E
:1019F00020E08E2D887159F4F601822F30E2882381
:101A000019F031938150FBCFC20ED11C20E09923F5
:101A100029F0D6019C93F60131966F0151110BC04C
:101A2000F601822F90E3882319F091938150FBCF28
:101A3000C20ED11C20E00F2D060F9A81342F307179
:101A400044FF03C0913309F40150101624F4093007
:101A500018F008E001C001E0AB0177FF02C040E0F0
:101A600050E0FB01E41BF50BA1E0B0E0AC0FBD1FA3
:101A7000EA0FFB1F8EE2A82E4B01801A91080B2D56
:101A800010E01195019511094F3FBFEF5B0721F45D
:101A9000D601AC9211966D01641775072CF084166F
:101AA000950614F4818101C080E3415051093196BB
:101AB000D60111967D014017510724F0D6018C9371
:101AC0006701E2CF6417750739F4963320F4953334
:101AD00019F4311101C081E3F6018083F701822FEF
:101AE00090E2882319F091938150FBCFF701E20F28
:101AF000F11D108280E090E02996ECE00C947A0EC3
:101B0000283008F027E03327DA01990F311D87FDCF
:101B1000916000966105710539F432602E5F3D9346
:101B200030E32A95E1F708959F3F30F08038710542
:101B3000610509F03C5F3C5F3D93913008F080689F
:101B4000911DDF93CF931F930F93FF92EF92192F65
:101B5000987F9695E92F96959695E90FFF27EC5B70
:101B6000FE4F99273327EE24FF24A701E7010590B4
:101B70000894079428F4360FE71EF81E491F511DDC
:101B8000660F771F881F991F0694A1F70590079489
:101B900028F4E70EF81E491F561FC11D770F881F36
:101BA000991F661F0694A1F70590079428F4F80E74
:101BB000491F561FC71FD11D880F991F661F771F0A
:101BC0000694A1F70590079420F4490F561FC71FEC
:101BD000D81F990F661F771F881F0694A9F7849155
:101BE0001095177041F0D695C79557954795F7947E
:101BF000E7941A95C1F7EAEEF0E068941590159114
:101C000035916591959105907FE27395E118F10A00
:101C1000430B560BC90BD009C0F7E10CF11E431F53
:101C2000561FC91FD01D7EF4703311F48A95E6CF7C
:101C3000E894015030F0080F0AF40027021708F466
:101C4000202F2395022F7A3328F079E37D932A956C
:101C5000E9F710C07D932A9589F6069497956795C4
:101C6000379517951794E118F10A430B560BC90BDA
:101C7000D00998F023957E9173957A3308F070E33C
:101C80007C932013B8F77E9170617D9330F083953B
:101C900071E37D9370E32A95E1F71124EF90FF90B3
:101CA0000F911F91CF91DF91992787FD909508950E
:101CB0002F923F924F925F926F927F928F929F925C
:101CC000AF92BF92CF92DF92EF92FF920F931F934A
:101CD000CF93DF93CDB7DEB7CA1BDB0B0FB6F894FB
:101CE000DEBF0FBECDBF09942A88398848885F843B
:101CF0006E847D848C849B84AA84B984C884DF80AC
:101D0000EE80FD800C811B81AA81B981CE0FD11D8F
:101D10000FB6F894DEBF0FBECDBFED010895F89465
:021D2000FFCFF3
:101D2200483A00543A004C3A004572726F723A20B7
:101D3200496E69632E204148543130004E6F204174
:101D420048543130004572726F723A20496E6963AD
:101D52002E2054534C32353631004E6F2054534CA2
:101D620032353631004E6F53656E20004572726F08
:101D720072200025004E6F53656E004E6F53656EE4
:101D820020202000206C7800206B6C7800414854A1
:101D92003130204572726F72004148543130204414
:101DA2006973636F6E0054534C323536312045727D
:101DB200720054534C32353631204F6666005465FA
:061DC2006D704572720015
:00000001FF
