:100000000C9434000C9451000C9451000C94320167
:100010000C9414010C9451000C9451000C94510058
:100020000C9451000C9451000C9451000C9451000C
:100030000C9451000C9451000C9449010C94510003
:100040000C9451000C9451000C9451000C945100EC
:100050000C9451000C9451000C9451000C945100DC
:100060000C9451000C94510011241FBECFEFD8E026
:10007000DEBFCDBF11E0A0E0B1E0E0E3F3E002C0FD
:1000800005900D92AA30B107D9F721E0AAE0B1E0BE
:1000900001C01D92A031B207E1F70E94FF000C944D
:1000A00096010C940000F894E1E6F0E080E880838B
:1000B00082E080838FEF8AB98BB984B18F6084B975
:1000C00085B1807F85B987B18F6087B988B1807F1E
:1000D00088B987B18F7C87B988B1806388B984B1CA
:1000E0008F7E84B985B1806185B9E8E6F0E08081D2
:1000F00083608083ECE6F0E0808180638083EBE6C0
:10010000F0E080818061808384B5826084BD85B5A4
:10011000856085BD83EC87BDEEE6F0E080818D7F54
:10012000808378940895823081F018F4813031F022
:100130000895833089F08430B1F0089585B1807FCF
:1001400085B985B1816085B9089585B1807F85B90C
:1001500085B1826085B9089585B1807F85B985B103
:10016000846085B9089585B1807F85B985B188603F
:1001700085B981E080930A010895823081F018F4F6
:10018000813031F00895833089F08430B1F00895E2
:1001900088B1807F88B988B1816088B9089588B1B5
:1001A000807F88B988B1826088B9089588B1807FDE
:1001B00088B988B1846088B9089588B1807F88B98A
:1001C00088B1886088B982E080930A0108958130FF
:1001D00051F485B18F6085B988B1807F88B98091ED
:1001E00001018BB90895823049F488B18F6088B9D4
:1001F00085B1807F85B9809102018BB908950E94F5
:10020000530080910A01882331F0F89480910A010B
:100210000E94E700F6CF80910C010E94930080912C
:100220000B010E94BD00EDCF1F920F920FB60F92EF
:1002300011248F9380910D01813071F4349905C0A0
:1002400080910C018F5F80930C01359905C08091DE
:100250000B018F5F80930B018F910F900FBE0F905A
:100260001F9018951F920F920FB60F9211248F9323
:10027000EF93FF931C9905C0EEE6F0E08081826069
:100280008083FF91EF918F910F900FBE0F901F9081
:1002900018951F920F920FB60F9211248F93EF9320
:1002A000FF9380910F018F5F80930F01843139F4A8
:1002B00080910E018F5F80930E0110920F0180914B
:1002C0000E018330A1F028F4813049F0823059F0DA
:1002D00025C08530A1F078F08630A9F01FC080914C
:1002E00005018BB91BC0809104018BB917C08091A7
:1002F00003018BB913C0809102018BB90FC08091AB
:1003000001018BB90BC0809100018BB981E0809312
:100310000D01EEE6F0E080818D7F8083FF91EF910B
:100320008F910F900FBE0F901F901895F894FFCFEC
:0A0330003F065B4F666D7D077F6F8F
:00000001FF
