S0100000536C6176654C41422E737265634A
S11300000C943B000C944D000C944D000C944D004A
S11300100C944D000C944D000C944D000C944D0028
S11300200C944D000C944D000C944D000C944D0018
S11300300C944D000C944D000C944D000C944D0008
S11300400C944D000C9488010C944D000C944D00BC
S11300500C944D000C944D000C944D000C944D00E8
S11300600C944D000C944D009B00A500AF00B9000A
S1130070C300CD00D70011241FBECFEFD8E0DEBFF0
S1130080CDBF21E0A0E0B1E001C01D92A630B207CF
S1130090E1F70E9430010C94E0010C940000ECE7BD
S11300A0F0E0808180648083808180628083EAE7DD
S11300B0F0E08081806880838081876080830895F8
S11300C0982F883008F097E0892F87708066809396
S11300D07C00EEE7F0E0408121E030E0B90102C0AD
S11300E0660F771F9A95E2F7CB01842B8083EAE7AA
S11300F0F0E080818064808380917A0086FDFCCF6B
S1130100809179000895E82F84FF5BC084B18C62EC
S113011084B984B18F7E84B98CB580618CBDE7705D
S11301208E2F90E08730910508F051C0FC01EC5C03
S1130130FF4F0C94DA018CB58E7F8CBD8CB58D7F0E
S11301408CBD8DB581608DBD42C08CB58E7F8CBD5C
S11301508CB58D7F8CBD8DB58E7F8DBD38C08CB533
S113016081608CBD8CB58D7F8CBD8DB581608DBD5E
S11301702EC08CB581608CBD8CB58D7F8CBD8DB54A
S11301808E7F8DBD24C08CB58E7F8CBD8CB5826076
S11301908CBD8DB581608DBD1AC08CB58E7F8CBD34
S11301A08CB582608CBD8DB58E7F8DBD10C08CB535
S11301B081608CBD8CB582608CBD8DB58E7F8DBD0C
S11301C006C084B1806184B984B1837D84B98CB55F
S11301D0462B242B282B20642CBD08958EBD089516
S11301E00DB407FEFDCF8EB508951092C50097E6B5
S11301F09093C400A1ECB0E01C92E2ECF0E0108219
S113020090819F73908390819F7C90839081977F4E
S113021090839081966090839C9198619C938130A7
S113022029F4E1ECF0E08081806880830895F894FB
S113023020E040E060E080E00E9483008CB58068AC
S11302408CBD0E944F0087B18F7B87B98AB18C6FB8
S11302508AB987B1836087B90E94F50078940895BC
S11302600E94170186E090E00E94600080930101E3
S113027087E090E00E94600080930001F3CF80FF4C
S113028004C09BB194609BB903C09BB19B7F9BB995
S113029081FF04C09BB198609BB903C09BB1977F59
S11302A09BB982FF04C09BB190619BB903C09BB111
S11302B09F7E9BB983FF04C09BB190629BB903C02E
S11302C09BB19F7D9BB984FF04C09BB190649BB993
S11302D003C09BB19F7B9BB985FF04C09BB1906811
S11302E09BB903C09BB19F779BB986FF04C098B1AB
S11302F0916098B903C098B19E7F98B9882324F47B
S113030088B1826088B9089588B18D7F88B90895CD
S11303101F920F920FB60F9211242F933F934F9376
S11303205F936F937F938F939F93AF93BF93EF9359
S1130330FF938EB58093040190910201913041F4B2
S11303408EB580930301809103010E943F0121C077
S113035090910201923041F48EB580930301809113
S113036003010E943F0115C090910201933089F46A
S1130370813439F4809101010E94EE000E94F00062
S113038008C0823431F4809100010E94EE000E9482
S1130390F000FF91EF91BF91AF919F918F917F9169
S11303A06F915F914F913F912F910F900FBE0F90DE
S11303B01F901895EE0FFF1F0590F491E02D0994FE
S10703C0F894FFCFDB
S9030000FC
